:020000040040BA
:1000000078314020D1374000CF374000CF37400013
:10001000CF374000CF374000CF374000000000000E
:10002000000000000000000000000000CF3740008A
:10003000CF37400000000000CF374000CF374000EE
:10004000CF374000CF374000CF374000CF37400098
:10005000CF374000CF374000CF374000CF37400088
:10006000CF37400000000000E9324000FD32400080
:1000700011334000CF374000CF374000CF3740002A
:100080002533400039334000CF374000CF374000A0
:10009000CF374000CF374000CF374000CF37400048
:1000A000CF374000CF374000CF374000CF37400038
:1000B000CF374000CF374000CF374000CF37400028
:1000C000CF374000CF374000CF374000CF37400018
:1000D00000000000CF37400000000000CF37400094
:1000E000CF374000CF374000CF374000CF374000F8
:1000F000CF374000CF374000CF374000CF374000E8
:10010000CF374000CF374000CF374000CF374000D7
:10011000CF37400000000000000000000000000099
:10012000CF374000CF374000CF374000CF374000B7
:10013000CF37400000000000CF374000CF374000ED
:1001400010B5054C237833B9044B13B10448AFF311
:1001500000800123237010BDD00940200000000062
:10016000ECB940000C4B43B10C480D4910B5AFF34E
:1001700000800C48036823B910BD0A48036833B9EE
:100180007047094B002BF7D0BDE810401847064BCD
:10019000002BF5D0184700BF00000000ECB940006C
:1001A000D4094020ECB9400000000000102808D11C
:1001B000B1F1805F05D108B5024B1B6803B19847C8
:1001C00008BD7047EC09402050B170B5441E054E83
:1001D000054D3046A847013CB4F1FF3FF9D170BD51
:1001E000704700BF35160300010040202DE9F041A3
:1001F000094F4FF40038C7F83480084D08266E6365
:100200006420074CA047C7F830806420A0472E63C5
:100210006420A047BDE8F08100120E4000100E409F
:10022000C901400010B50022144B1A600A20144C7A
:10023000A0470B20A0470C20A0471020A04711206A
:10024000A047104B08221A61C3F8A0201A630E4A77
:100250004FF400311161C2F8A010116304221A6139
:10026000C3F8A0201A63094B1B6813F0010F01D0DB
:10027000064B1B68064B9847002010BDEC09402038
:10028000F134400000100E4000120E4010E000E07B
:10029000ED01400030B583B0144B18601020144BB2
:1002A00098474FF020517C20124B9847124C012266
:1002B0004FF080512046114B9847114B009351232A
:1002C0004FF08052102120460E4DA8474FF080512C
:1002D00020460D4B98474FF480320C4B1A60002299
:1002E000102120460A4B984703B030BDEC0940204E
:1002F000F1344000F930400000140E40A92F4000B6
:10030000AD01400079324000E930400000E100E0FA
:100310004D33400008B528B94FF080510448054BD3
:10032000984708BD4FF080510148034B984708BDDE
:1003300000140E40ED304000E9304000F8B5394C73
:100340004FF480112166C4F8901061656162C4F8B1
:100350008010236F0B432367636F23F4801363675D
:100360004FF400122266C4F8902062656262C4F8FD
:100370008020236F13432367636F23F400136367A5
:100380004FF480032366C4F8903063656362C4F859
:100390008030206F18432067606F20F48000606712
:1003A0006160626063604FF000766660266026617F
:1003B00026631D4D28461D4B984702232B60802342
:1003C0002B606B6843F001036B606B6843F01003B4
:1003D0006B6001212846164B9847002201212846D0
:1003E000144B9847012211462846134B9847002288
:1003F00001212846114B984711491248124B984742
:10040000C2B201212846114B984700231A46012108
:1004100028460F4FB84701232B6026630D4B9847A2
:100420000020F8BD00140E4000800040453540001B
:1004300071354000EB35400009364000273640005A
:1004400000A3E111006CDC023B3640005136400055
:1004500079364000ED0140002DE9F04F83B00328CC
:1004600044D10E684D680C8900238DF80430ADF836
:10047000063086B1002D36D14FF00108994601AD06
:100480004FF00072204B5A632CB3204FDFF894B02A
:10049000DFF894A006E04FF000084FF0010901AE2C
:1004A000EEE7C4B100231A4631783846D8470DF13B
:1004B00005020DF106013846D047BDF806302B7015
:1004C000013CA4B2B8F1000F00D10135B9F1000F21
:1004D000E7D10136E5E74FF000720B4B1A630020BD
:1004E00003B0BDE8F08F6FF00500F9E740F21F128E
:1004F00007490848084CA0470848A0470848A047B3
:100500004FF0FF30ECE700BF00140E4000800040C9
:10051000C4A74000D4A74000F9404000E8A740002D
:1005200000A84000B73540008735400002220E4B3E
:100530001A6003F5592303F580634FF400125A61E2
:10054000C3F8A0204FF480125A61C3F8A0204FF4E2
:1005500080025A61C3F8A0204FF000725A61C3F8BC
:10056000A0200020704700BF008000403AB1013950
:10057000821811F8013F00F8013B9042F9D1704711
:1005800022B1821800F8011B9042FBD1704703781A
:1005900043B1002301339BB210F8012F002AF9D197
:1005A000184670470023FBE7024A13780133DBB299
:1005B00013707047F30940207047000000B583B006
:1005C00001200B4B984701A941F27000094B984755
:1005D000034618B1184603B05DF804FB019941F0D9
:1005E0000201019141F27000034B98470346F1E785
:1005F00015034000D9184000E518400008B5124B1B
:100600001B784BB9114B1B78DBB2032B0CD00F4B73
:100610001B78DBB2042B07D00B4A13780133DBB213
:1006200013700023184608BD094B9847034600285D
:10063000F8D145F2786141F27400064B98470346C1
:100640000028E9D0EEE700BFF1094020F009402082
:1006500049144000E51840001E4B1B7823B11D4A89
:100660001378013BDBB213701A4B1B78002B2ED191
:10067000194B1B78DBB2032B06D0174B1B78DBB270
:10068000042B01D0002323E000B583B000230193A5
:1006900044F2213141F27400104B9847034618B1DF
:1006A000184603B05DF804FB01A901200C4B9847E4
:1006B00003460028F4D1019911F0020FF0D021F087
:1006C000020101910120054B98470346E8E700230A
:1006D00018467047F1094020F0094020E518400015
:1006E000D91840002DE9F04F87B00746884692465A
:1006F0009946109CBDF84460BDF8485001F07F0356
:100700008DF815308DF814000823ADF81630002C44
:1007100000F09F80BDF8163016FA83F32B449BB28D
:10072000ADF816305C4B98478346002840F0A28015
:1007300000230393ADF806300293029B1F430297F8
:10074000029B43EA08230293BDF81620029B43EA6A
:1007500002430293029941F28C00504B9847834622
:10076000002840F0918000230293029B43F0020393
:100770000293029941F27800484B9847834600283B
:1007800040F0828000230393ADF80630BDF80630B8
:100790009BB2B3F57A7F16D241F27808404F02A996
:1007A0004046B84778B9029B13F0020F59D0BDF804
:1007B000063001339BB2ADF80630BDF806309BB26F
:1007C000B3F57A7FEBD3039B002B61D0039B04939B
:1007D000BDF816309BB2ADF816300498082205A972
:1007E000304B9847834600284ED1049B083304932E
:1007F000BAF1000F0AD004984A465146294B98474F
:100800008346002840D1049B4B4404937CB1049B55
:10081000A5EB09051D440495049832462146214B59
:100820009847834600282FD1049B1E440496039BBF
:100830009B000293029B43F002030293029941F250
:100840006C00164B98478346F0B9174B9847834680
:100850001AE0BDF8163019FA83F39BB2ADF81630E2
:1008600060E703A911480E4B98470028ABD000233E
:100870000393A8E740F29F120D490E480E4CA04783
:100880000E48A0470E48A047584607B0BDE8F08F75
:100890006FF0020BF8E700BFFD054000E5184000CF
:1008A000D91840004D1940005906400000041500B9
:1008B00004A84000D4A74000F940400058AA4000D6
:1008C00000A840002DE9F04387B0DFF8F892A24F6E
:1008D000A24EDFF8F482D5E0042204A90598A04BCB
:1008E0009847BDF812309BB2ADF81230044600288C
:1008F00030D1BDF812309BB29D4205D0BDF8123008
:100900009BB2EB1A042B33DC9DF81030DBB2012BC9
:1009100047D09DF81030DBB2022B5FD09DF810302D
:10092000DBB2042B68D09DF81030DBB2062B71D0FF
:100930009DF81030DBB2072B7AD040F202224146FC
:100940003046884CA0478848A0478848A0476FF0A9
:10095000050496E04FF4EB7241463046814DA847BE
:100960008348A8478148A8470120824B984788E0E0
:1009700040F2DF12414630467A4CA047BDF81220C3
:100980009DF810309DF81110009192B229467A48D6
:10099000A0477648A0470120764B98476FF00504A2
:1009A0006FE0764B1B6843B19DF81100BDF8121043
:1009B0000839059A083289B29847714B1B78002B89
:1009C0005CD140F2092241463046664CA0476D4852
:1009D000A0476648A0476C4B98474FE06B4B1B689D
:1009E000002BEAD09DF81100BDF812100839059AC5
:1009F000083289B29847E0E7654B1B68002BDCD0D2
:100A00009DF81100BDF812100839059A083289B214
:100A10009847D2E75F4B1B68002BCED09DF81100A2
:100A2000BDF812100839059A083289B29847C4E710
:100A3000594B1B68002BC0D09DF81100BDF8121057
:100A40000839059A083289B29847B6E740F2112270
:100A500041463046434CA0475048A0474348A04732
:100A60006FF001042FE04FF40672414630463D4CD2
:100A7000A04703994A48A0473C48A047494B98479C
:100A8000044604BB99F80030002B00F09F8099F8D1
:100A90000030013BDBB289F800301FE040F21E223B
:100AA000414630462F4DA8473F48A8472F48A84702
:100AB00009E04FF40972414630462A4DA8473B48A9
:100AC000A8472A48A84740F2432239493046254DD5
:100AD000A84721463748A8472448A847B8470446AE
:100AE0000028E6D103A941F27000334B9847044631
:100AF0000028D3D1039B13F0010FB4D01D4B9847AE
:100B0000039921F00101039141F270002B4B9847AA
:100B100004460028D7D10022194B1A70039DC5F353
:100B20008B05002D92D006A941F8042D41F28400D6
:100B3000214B9847044600283FF4CEAE4FF4E772AD
:100B400041463046074DA8471D48A8470748A847D3
:100B50000120084B984794E7FD054000D4A74000CA
:100B6000F1184000F9404000C4A8400000A840002F
:100B70006CA840001503400084A84000080A4020EB
:100B8000F2094020DCA84000BD054000FC094020DF
:100B9000000A4020F4094020040A402000A9400037
:100BA00014A940005906400030A9400054A9400053
:100BB00018A8400074A94000D9184000E51840006A
:100BC00044A84000F309402010A84000002007B0CE
:100BD000BDE8F0832DE9F04383B01C46002A18BF1E
:100BE000002903D005460F461646B8B94CB101227C
:100BF000324B1A70324B98470346184603B0BDE893
:100C0000F08340F269222F492F48304CA0473048EA
:100C1000A0473048A0476FF00B03EEE7694641F26A
:100C200070002D4B984703460028E6D1DDF8008080
:100C300001A941F28400284B984703460028DCD1E3
:100C4000C8F38B0846451CD8019B9D4228D305EB71
:100C500006094344994523D83246394628461F4B56
:100C6000984703460028C8D1019A9044C84501D04E
:100C7000002CC2D00122114B1A70114B9847034629
:100C8000BBE740F27A220F490F48104CA04742467A
:100C900031461348A0470F48A0476FF00B03ACE75D
:100CA0004FF4207207490848084CA0470D48A04758
:100CB0000848A0476FF00B039FE700BFF2094020F0
:100CC000BD05400028A84000D4A74000F9404000DE
:100CD000A4A9400000A84000D9184000F118400025
:100CE000C4A9400008AA400038B5431E062B1DD8F1
:100CF000DFE803F00804100C1C141800134B1960F3
:100D0000002038BD124B1960002038BD114B19600E
:100D1000002038BD104B1960002038BD0F4B196002
:100D2000002038BD0E4B1960002038BD044640F24B
:100D3000B9220C490C480D4DA84721460C48A8473C
:100D40000C48A8476FF00B0038BD00BFFC094020DD
:100D5000080A4020000A4020F8094020F4094020F9
:100D6000040A402034A84000D4A74000F9404000C5
:100D70004CAA400000A8400010B50024094B1C609C
:100D8000094B1C60094B1C70094B1C70094B1C70F3
:100D900009480A4B98470A4903200A4B98472046BE
:100DA00010BD00BF080A4020FC094020F109402086
:100DB000F0094020F3094020A905400095024000B9
:100DC000B9054000E90C400030B59FB015462C280D
:100DD0002ED004461B283BD0062849D00E2825D00B
:100DE000322855D02F2863D0342876D0112800F02F
:100DF0009380132800F0A880042800F0B7806528AD
:100E000000F0C680092800F0D5802A2800F0E48090
:100E1000202800F0F3804FF4957286498648874D6C
:100E2000A84721468648A8478648A8471FB030BD36
:100E30000023042203A92846834CA0470028F5D1AB
:100E4000824B1B68002BF1D003A92C209847EDE7BB
:100E50000023082203A928467B4CA0470028E5D19F
:100E60007A4B1B68002BE1D003A91B209847DDE7D4
:100E70000123302203A92846734CA0470028D5D16E
:100E8000724B1B68002BD1D003A906209847CDE7F1
:100E90000023102203A928466B4CA0470028C5D187
:100EA0006A4B1B68002BC1D003A932209847BDE7CD
:100EB0006422002103A8664B98470023642203A9FB
:100EC0002846614CA0470028B0D1604B1B68002B1E
:100ED000ACD003A92F209847A8E70023042203A938
:100EE0002846594CA0470028A0D15A48534CA04747
:100EF0000399CBB20093C1F30723C1F30742090E54
:100F00005548A0474F48A047504B1B68002B8DD039
:100F100000213420984789E70023504A13700422A7
:100F200003A92846484CA04700287FF47FAF9DF8CE
:100F30000C204B4B1A70454B1B68002B3FF476AFCF
:100F400003A91120984771E700232C2203A9284602
:100F50003D4CA04700287FF469AF3C4B1B68002B39
:100F60003FF464AF03A9132098475FE700230422EE
:100F70001CA92846344CA04700287FF457AF334BB8
:100F80001B68002B3FF452AF1CA9042098474DE783
:100F9000002304221CA928462B4CA04700287FF4DC
:100FA00045AF2A4B1B68002B3FF440AF1CA96520BE
:100FB00098473BE70123642203A92846224CA04717
:100FC00000287FF433AF214B1B68002B3FF42EAF7A
:100FD00003A90920984729E70123042203A92846E9
:100FE000194CA04700287FF421AF184B1B68002B39
:100FF0003FF41CAF03A92A20984717E700230822D3
:1010000003A92846104CA04700287FF40FAF012306
:10101000BDF81020039905F10800A04700287FF4CF
:1010200005AF0A4B1B68002B3FF400AF03A920203B
:101030009847FBE678AA4000D4A74000F94040005A
:10104000D4AA400000A84000D50B40000C0A402064
:1010500081054000A8AA4000B4AA4000110A40201F
:10106000100A4020F0B58BB001238DF8073000281E
:1010700050D00268294B1A600022294B1A700DF1DA
:101080000700284B9847044610B120460BB0F0BD2E
:10109000254B98470446002838D124490120244B89
:1010A000984702A8234B98470446234F3846234DC0
:1010B000A8479DF80E309DF80D209DF80C10204893
:1010C000A847204E3046A8473846A8479DF811301B
:1010D0009DF810209DF80F101B48A8473046A847E0
:1010E0003846A8470023032213211848A847304652
:1010F000A84714F10D0FC8D140F2D5121449154874
:10110000A8471548A8473046A847BEE70020134B1C
:101110009847BAE76FF00B04B7E700BF0C0A40200E
:10112000110A4020591A4000790D4000C90D4000B5
:10113000E90C4000A9194000A8AA4000F94040006D
:1011400094AB400000A84000B0AB4000CCAB4000E6
:1011500084AA4000D4A74000E8AB4000251B400013
:1011600008B5014B984708BDC50840002DE9F0417E
:10117000A0B080460D4614461E46BDF89870012A60
:1011800003D0002B37D0022A42D06B1EDBB21F2BBC
:1011900075D8FF2F01D00D2F7ED82A4641460DF17C
:1011A0005A00774B984720AB1D44002305F8263C96
:1011B000ADF858709DF89C30003318BF01238DF8AE
:1011C0007B308DF85540032C73D0022C00F0AA80A0
:1011D000042C00F0C180012C40F0C4800023029355
:1011E000019300936C2305AA28210120654CA04798
:1011F00020B0BDE8F08140F2032263496348644CAB
:10120000A0476448A0476448A0476FF00B00EFE791
:101210001846624B98474028B7D13378A3F13A0279
:10122000D2B2062A1ED9A3F13002D2B2362A19D878
:10123000473BDBB2192B15D9314606F13F0011F8B7
:10124000013FA3F13A02D2B2062A0BD9A3F1300230
:10125000D2B2362A06D8473BDBB2192B02D98842D4
:10126000EDD192E740F20F2247494848484CA04749
:101270004B48A0474848A0476FF00B00B8E740F242
:10128000192241494148424CA0474648A04742489C
:10129000A0476FF00B00ABE740F222223A493B48EF
:1012A0003B4CA0474048A0473B48A0476FF00B008D
:1012B0009EE73378013BDBB28DF81430032B13D853
:1012C0007278531E8DF8153002F0EF030B2B1AD1F4
:1012D000B11C0DF116002A4B9847737820AA1344CD
:1012E000002203F86A2C79E740F239222649274880
:1012F000274CA0479DF814102C48A0472648A0472B
:101300006FF00B0074E74FF410721F491F48204C18
:10131000A0479DF815102648A0471F48A0476FF02A
:101320000B0065E730461D4B9847431E9BB23F2B91
:1013300005D8421C314605A8114B98474EE740F2AC
:101340004F2211491148124CA0471A48A047124891
:10135000A0476FF00B004BE73E22314605A8084B33
:1013600098473BE740F25F2207490848084CA047EE
:101370001148A0470848A0476FF00B0038E700BFAE
:101380006D054000E506400094AA4000D4A7400047
:10139000F9404000E8AA400000A840008F05400046
:1013A000FCAA40000CAB400020AB40002CAB40003E
:1013B00048AB400064AB400080AB400010B582B049
:1013C00000240194BDF810400094024CA04702B0E4
:1013D00010BD00BF6D11400010B586B00622014659
:1013E00004A8074B98470023029301930093082316
:1013F00004AA02210120034CA04706B010BD00BF83
:101400006D054000E506400000207047F0B583B050
:1014100004464FF4A5550A4E0A4F21462846B047C8
:1014200054B102A9002341F8043D2846B8470028DA
:10143000F3D1019B9C42F0D1002003B0F0BD00BF6E
:10144000E5184000D91840002DE9F04F83B0012085
:101450003C4B984701A901203B4B9847824638B93D
:1014600000244FF00108DFF80891364D374F20E097
:10147000722237493748384CA0473848A047384887
:10148000A04709E0962232493248334CA0473548FC
:10149000A0473348A047B246504603B0BDE8F08F9E
:1014A000019941F002014046C847009B13F0040F28
:1014B000F2D1019941F002014046C8474046A84791
:1014C0006946294B1868204B984708B9009BBBB95F
:1014D000254E0E2333604046A847694630681A4BB4
:1014E000984708B9009B5BB91F4E132333604046F1
:1014F000A84769463068144B984706460028C1D172
:10150000194E009B13F0040FC6D10134A7FB04232E
:101510005B0803EB43039C42C2D10220A847694603
:101520003068094B9847009B13F0040FE9D1AA22B9
:1015300007490848DFF820B0D8470C48D847084882
:10154000D847DEE7C9014000D9184000ABAAAAAAD3
:1015500004AC4000D4A74000F940400074AC400007
:1015600000A8400094AC400010004020B4AC400003
:10157000E518400000B583B001A941F20840154BC1
:101580009847E8B9019941F48071019141F208400E
:10159000114B9847B8B901A94FF4D0500D4B98475B
:1015A000A0B9019941F4803101914FF4D0500A4B18
:1015B0009847002818BF6FF0050003B05DF804FBE2
:1015C0006FF00500F9E76FF00500F6E76FF0050032
:1015D000F3E700BFD9184000E518400010B582B00D
:1015E000254B1C6824B1244B1C68204602B010BD5A
:1015F00019464FF48050214B984718B100221E4BDA
:101600001A60F2E701A941F2F4301C4B984718B177
:101610000022194B1A60E8E7174B1B68184A9342DF
:101620000DD0184A934211D0174A934218D0124A4B
:10163000136823F4702343F4A0231360D3E7019BC2
:10164000012BF4D001320C4B1A60F0E7019B032B05
:10165000EDD0042B0CBF01320C4A074B1A60E6E7B1
:1016600005494FF46C10054B98470028DFD0002245
:10167000014B1A60B9E700BF140A4020D918400096
:10168000A0021000B0021000F0001000B202100022
:101690002DE9F041074641F21405284C284E284612
:1016A000A047002802DB0120B047F8E72548234B7C
:1016B000984710F0010F10D1DFF884801F4E224DA3
:1016C0000120C0474FF00C10B04704462A4601469F
:1016D0001E481F4B9847AC42F2D1022F19D0032F5E
:1016E00022D0042F14BF002480241A4B9847C0F343
:1016F0000B00B0F5687F0CBF44F002002046164B8B
:10170000984716494FF00C10154B98470020BDE83C
:10171000F08114491448124CA0474FF4801141F253
:101720008C00A0470024E0E70E490F480C4CA0476E
:10173000002141F28C00A0470024D6E7CD184000DC
:10174000C9014000BC0702009ED0AD10D8AC4000DB
:10175000F9404000DD1540000D144000612F52EFAC
:10176000E51840007DD51C3CAC070200F0B583B005
:1017700041F28C030193184B00930238C0B2012848
:1017800011D94FF0FF3400200227144E144D009B56
:10179000984212D03846B0470198A847013CF6D18C
:1017A0006FF004000EE00F4B0193A3F12253A3F559
:1017B0001113A3F2E9530093E3E7009A064B9A4210
:1017C00002D0002003B0F0BD002141F28C00064B96
:1017D00098470020F6E700BF36265302C9014000B3
:1017E000CD184000AC070200E5184000F0B583B00A
:1017F00002A9002341F8043D4FF4A050244B984720
:1018000020BB019921F4806101914FF4A050214B3C
:101810009847054628BB0A241D4E1E4F01A94FF4C8
:10182000A050B047054638BB019911F4806F0AD02B
:1018300021F4806101914FF4A050B8470546631E22
:1018400013F0FF04EAD1284603B0F0BD40F2312284
:1018500011491248124CA0471248A0471248A0470D
:10186000CFE740F237220C490C480D4CA0470F48F7
:10187000A0470D48A047E6E740F23E220649074848
:10188000074CA0470A48A0470748A047DBE700BF2E
:10189000D9184000E518400014AC4000D4A740001F
:1018A000F940400020AC400000A840003CAC4000A3
:1018B00058AC400008B5014B984708BD3D034000B7
:1018C00008B5014B984708BD2D05400008B5014BF0
:1018D000984708BD2121400008B5014B984708BD35
:1018E0003921400008B5014B984708BD51214000FF
:1018F0002DE9F047074689461546124BB3F800809C
:10190000A8F108081FFA88F8424519D9444600266C
:10191000DFF834A0424609EB06013846D0470346BB
:1019200058B92D1B26442744A542F3D8AAB209EB87
:1019300006013846044B984703461846BDE8F08731
:101940000026F3E70C0040207D2240002DE9F047FF
:10195000074689461546124BB3F80080A8F10808DF
:101960001FFA88F8424519D944460026DFF834A00A
:10197000424609EB06013846D047034658B92D1BAD
:1019800026442744A542F3D8AAB209EB06013846FB
:10199000044B984703461846BDE8F0870026F3E756
:1019A0000C0040204523400030B583B0044602A916
:1019B000002341F8043D2448244B98470546019AEA
:1019C000234B9A4239D0019B1A0C91B2080AE0715C
:1019D000C1F30311217202F00F0262729AB2110A6E
:1019E0002171C2F30312627103F00F03A371194B4B
:1019F000984720602279A37903F00F0343EA02237A
:101A000062791201D2B21343E179627A02F00F02D5
:101A100042EA0122217A0901C9B20A4341F2303176
:101A20008A4288BF6FF00C0541F22F3293428CBF7F
:101A300028466FF00C0003B030BD01A941F2480008
:101A4000024B98470546BEE7AC070200D918400094
:101A5000C3C15DD7DD15400038B5002837D0047804
:101A6000631EDBB2042B28BF012400201E4B9847C5
:101A7000054600282DD11D481D4DA8471D4B9847F0
:101A800001461D48A8471D48A8471D4B98472046BA
:101A90001C4B98470546B0B920461B4B9847054656
:101AA00088B9023CE4B2012C0FD9184B984705467F
:101AB00058B14FF4AE72164916480D4CA04716485F
:101AC000A0470E48A047154B9847284638BD01242B
:101AD000CBE74FF492720E490E48054CA0471048D0
:101AE000A0470648A047F0E7B5184000A8AA400064
:101AF000F9404000DD154000A0AD400000A84000C6
:101B000069214000911640006D1740007515400096
:101B1000E8AC4000D4A7400064AD4000C1184000CC
:101B200084AD400038B5194B984758B90020184B80
:101B30009847044698B9174B98470446D0B9164BB6
:101B400098470AE004464FF4BA7214491448154DF8
:101B5000A8471548A8471548A847204638BD40F271
:101B60007B120E490E480F4DA8471148A8470F4851
:101B7000A847F2E740F2811208490948094DA847F1
:101B80000C48A8470948A847E7E700BFED17400001
:101B9000312C4000C118400015214000F4AC400039
:101BA000D4A74000F940400004AD400000A8400028
:101BB00024AD400048AD400000B585B0002301933E
:101BC0000290ADF80C1001A90320024B984705B014
:101BD0005DF804FB590440002DE9F04182B0054650
:101BE00000F13B03DBB2012B27D9CF2825D00B24F2
:101BF0004FF00108234F41460DF10700B847064654
:101C000020BB9DF80730AB422CD0631E13F0FF04BD
:101C1000F1D10B2401271B4D39460DF10700A847D0
:101C200010BB9DF8073053B3631E13F0FF04F3D1CC
:101C30000126304602B0BDE8F08101210DF1070018
:101C4000104B98470028D2D00026F2E740F2271226
:101C50000D490E480E4CA0470E48A0470E48A0471D
:101C60000026E6E70B24D5E740F23512064907487F
:101C7000074CA0470748A0470748A047D9E70126D7
:101C8000D7E700BFB91B4000B8AD4000D4A7400063
:101C9000F9404000F8B1400000A840002DE9F04FA5
:101CA00085B083468A4617464FF00009374D27E036
:101CB00040F2571236493748374CA0473748A047BB
:101CC0003748A04700230193019805B0BDE8F08F85
:101CD000002C2EDD41460BEB0900A84704460028E6
:101CE00034D11FB92F4B1B78002B3AD0C1440FFAC7
:101CF00089F9AAEB080A1FFA8AFABAF1000F41D053
:101D0000D046BAF5005F28BF4FF400580A240126D8
:101D100031460DF10B00A84701900028C8D19DF86D
:101D20000B301B090F2BD3D0013C24B2B4F1FF3F81
:101D3000EED140F2631216491648174CA0479DF8A1
:101D40000B101948A0471648A047BDE74FF4B672DC
:101D50000F491048104CA0471448A0471048A0470E
:101D6000B2E7022103A8A8470028BFD040F27712AB
:101D700007490848084DA8470D48A8470848A847FC
:101D80000194A1E7012301939EE700BFB91B400026
:101D9000C4AD4000D4A74000F94040002CB2400040
:101DA00000A84000180A402060B2400090B24000F5
:101DB000C4B2400000B585B0019000230293ADF895
:101DC0000C1001A90320024B984705B05DF804FBF5
:101DD0005904400070B584B09DF820408DF804008F
:101DE000C1380E2800F2A280DFE800F045456619F0
:101DF0002A3354547F08A0A0A0A03C000B0C8DF8FF
:101E000005300B0A8DF806308DF807100521554B6B
:101E10001B78002B00F08C800139C9B29AE0C1F325
:101E2000072344B98DF805308DF8061000238DF88E
:101E300007300521EBE763F07F038DF80530F3E70A
:101E400000238DF805308DF806308DF80730052118
:101E5000DDE700238DF805308DF806308DF807306A
:101E60000521D4E7FF238DF805308DF806308DF875
:101E700007300521CBE70A0C8DF805200A0A8DF8FA
:101E800006208DF807101A0A8DF808208DF8093001
:101E90000721BCE70A0C8DF805200A0A8DF80620F8
:101EA0008DF807101A0C8DF808201A0A8DF80920F1
:101EB0008DF80A300821AAE7C1F3072384B98DF809
:101EC00005308DF80610130E8DF80730130C8DF8C1
:101ED0000830130A8DF809308DF80A20082196E79A
:101EE00063F07F038DF80530EBE70B0C8DF80530C0
:101EF0000B0A8DF806308DF80710130E8DF8083098
:101F0000130C8DF80930130A8DF80A308DF80B2068
:101F100009217CE74FF4847213491448144CA047FC
:101F20001448A0471448A047002019E0002017E0FB
:101F30004E1E01AB9D197F201A46104C12F8013B32
:101F400083EA4003E05C9542F8D104AB1E444300B1
:101F500006F80C3C01A80A4B98470028DAD101206A
:101F600004B070BD180A4020B0AD4000D4A74000B6
:101F7000F9404000CCB1400000A840002CAE400029
:101F8000B51D400070B582B00446312835BF01232D
:101F90000023C325C925009304230A460146284689
:101FA000154EB04701280DD040F2EB1213491448EA
:101FB000144DA84721461448A8471448A8470020B4
:101FC00002B070BD2846124B98470128F8D040F265
:101FD000F1120A490A480B4DA84721460D48A84767
:101FE0000A48A84700240094234622462146CF20D1
:101FF000014DA8472046E3E7D51D4000E4AD400071
:10200000D4A74000F94040007CB3400000A8400045
:10201000D91B4000A8B340002DE9F04184B004462C
:102020008846B0F5807F35BF01260026C425CA2525
:10203000009604230022014628462C4FB847012869
:102040000ED040F245222A492A482B4DA847214666
:102050002A48A8472A48A847002004B0BDE8F081D4
:102060002846284B9847012814D040F24B2220499B
:102070002048214DA84721462348A8472048A84783
:1020800000240094234622462146CF20174DA8471E
:102090002046E2E73246042103A81C4B984701285A
:1020A00010D19DF80D209DF80E301B0443EA022349
:1020B0009DF80C2013439DF80F2043EA0263C8F8F3
:1020C0000030CAE740F2532209490A480A4CA047A7
:1020D0000F48A0470A48A047002400942346224600
:1020E0002146CF20014DA8472046B6E7D51D400028
:1020F00004AE4000D4A74000F9404000FCB24000CC
:1021000000A84000D91B400028B340009D1C40009F
:102110005CB340000020014B18707047180A402043
:1021200000B583B001A9034B9847019803B05DF84F
:1021300004FB00BF1920400008B5044B9847012854
:102140000CBF00206FF0050008BD00BF1920400043
:1021500008B5044B984701280CBF00206FF005001C
:1021600008BD00BF851F400030B583B0002302A921
:1021700041F8083D344A13704EF62400334B98471B
:1021800048B3314B1B787BB9009921F07C0141F0B9
:10219000500100914EF624002D4B9847044600282C
:1021A00039D00122284B1A7001A94FF48050274BD7
:1021B000984700283AD04EF62400264B984720F046
:1021C000700141F050014EF62400234B9847002443
:1021D000204603B030BD01221B4B1A7040F2C522CD
:1021E0001E491F481F4CA0471F48A0471F48A04733
:1021F00069464EF62400154B984704460028C0D186
:102200004FF4327215491648164DA8471848A8478A
:102210001648A847DCE740F2D22210491048114D79
:10222000A8471448A8471148A847D1E74FF4377288
:102230000A490B480B4CA0470F48A0470B48A04742
:102240006FF00504C4E700BF180A402019204000C1
:10225000851F4000212140005121400020AE400058
:10226000D4A74000F94040002CAF400000A8400037
:102270007CAF4000ACAF4000E0AF4000F0B583B0B1
:1022800004460F461546002200922B460146C82000
:10229000224EB04701280ED04FF41D72204921482C
:1022A000214DA84721462148A8472148A8476FF05B
:1022B000050003B0F0BDC8201E4B9847012812D07E
:1022C00040F27A2216491748174DA84721461A4866
:1022D000A8471748A847002100910B460A46CF207F
:1022E0000E4CA047E3E7002229463846134B984797
:1022F000012811D04FF4217209490A480A4CA0471D
:102300000F48A0470A48A047002100910B460A4603
:10231000CF20024CA047CAE70020CAE7D51D4000E5
:1023200014AE4000D4A74000F940400008B040007F
:1023300000A84000D91B400038B040009D1C400060
:1023400070B040002DE9F04385B00446884615463C
:10235000002200922B460146C7204D4EB04701286F
:102360000FD040F20F224B494B484C4DA847214615
:102370004B48A8474B48A8476FF0050005B0BDE89B
:10238000F083C720484B9847012812D040F215220D
:1023900040494148414DA84721464448A847414843
:1023A000A847002100910B460A46CF20384CA04791
:1023B000E2E70024ADF80C403D4FDFF80C911DE042
:1023C000B5F5005F94BF0323022363F00F038DF87C
:1023D0000B3001210DF10B00B847E8B9314608EB8D
:1023E0000400B847002835D199F80030002B3CD0C4
:1023F000344424B2AD1BADB2002D46D02E46B5F507
:10240000005F28BF4FF40056002CD9D1B5F5005F0E
:1024100094BF03230123D8E74FF4D47225491E4803
:102420001E4CA0472448A0471E48A04740F2262241
:1024300018491948194CA0472048A0471948A047F7
:1024400000240094234622462146CF20104DA84761
:10245000204693E740F2B11216490F480F4CA047AF
:102460001748A0470F48A047E0E7022103A8B84754
:102470000028BDD040F2BB120E490748074CA047C8
:102480001048A0470748A047D0E7002076E700BFE4
:10249000D51D4000F4AD4000D4A74000F9404000F5
:1024A00098B0400000A84000D91B4000C8B04000D0
:1024B000B51D4000D4AD400000B14000A4B14000C3
:1024C00038B140006CB14000180A40202DE9F84FA7
:1024D000BDF8284094B181460E46924698460301C5
:1024E0002249CB5853B101EB00139B889BB22BB10F
:1024F00001EB00139B7ADBB2012B01D0BDE8F88F12
:10250000F48001EB0017DFF87CB006E025460123DC
:102510000BE0641BA4B2A844ECB1BB88E31A1BB265
:10252000002BF3DDBD88ADB2002339682A46404652
:10253000D84790B93B683360B580F3885B1BF38064
:102540000B4B1B68002BE4D0094B1B6832465146ED
:1025500048469847DDE7BDE8F88F0648064DA8478E
:1025600021460648A8470648A847C7E788104020E4
:1025700038114020A8AA4000F9404000E0B34000D4
:1025800000A84000D50B4000F0B599B01446412892
:1025900049D00D4642285FD0432875D0442800F02A
:1025A000B0804B2800F0AD804A2800F0CC80A0F12C
:1025B0004603DBB2072B00F2F480852222FA03F3F4
:1025C00013F0010F00F0ED80482814BF06270927FB
:1025D0000023102203A92046934EB047002840F064
:1025E000B0809DF91800BDF81A10904A02EB001255
:1025F00000231373BDF914E0BDF81630BDF80E606A
:10260000ADF82660049E0A96D28892B2914200F0FC
:10261000AC80102D40F29580012300221146104617
:10262000814CA0478DE00023042207A920467E4C60
:10263000A047002840F085809DF81D308DF80C30B3
:102640007B4B1B68002B7CD0794B1B6803AA0121B4
:102650009DF91C00984774E00023042207A9204636
:10266000714CA04700286CD19DF81D308DF80C30BE
:102670006F4B1B68002B64D06D4B1B6803AA0221B3
:102680009DF91C0098475CE000230C220DEB020131
:102690002046654CA047002853D19DF91530002BEA
:1026A00019DB624A02EB03120021D17201219172FF
:1026B00060490A88013292B20A800A8892B21AB935
:1026C0000A88013292B20A805A4A118889B2574A5E
:1026D00002EB0312D1808DF81C300223ADF82030BC
:1026E000BDF80E30ADF82230049B0993504B1B68A7
:1026F0003BB34F4B1B6807AA04219DF91400984770
:102700001FE00023042207A92046474CA047C0B978
:102710009DF91C008DF80C009DF91D308DF80D30D1
:102720003BB9BDF81E30083B9BB2404A02EB001299
:1027300013813F4B1B6823B13D4B1B6803AA052146
:10274000984719B0F0BD0023442207A92046364C13
:10275000A0470028F5D1384B1B68002BF1D0364B31
:102760001B68179907A89847EBE7BEF1000F01DD3A
:10277000AE450DDBADF820E0002307932C4B1B6822
:10278000002BDED02A4B1B6807AA39469847D8E7AA
:102790001FFA8EF2009223443A4607A9274CA0471D
:1027A000CFE700F0FD03452B19D04C2817D0522855
:1027B000C7D10123142207A920461B4CA04700289B
:1027C000BFD11F4B089A1A601B68002BB9D01C4B55
:1027D0001B689DF82C20099907989847B1E747286E
:1027E00014BF072508250023082207A920460E4C00
:1027F000A0470028A5D19DF91C00BDF82020BDF8F8
:102800001E30ADF80C30094B03EB0013DB889BB294
:102810009A4296D1064B1B68002B92D0044B1B6842
:1028200003AA294698478CE7D50B40008810402022
:10283000381140201A0A402040114020CD24400089
:102840003C11402008B50A4B1B7803B108BDB022EB
:1028500000210848084B984708490220084B984730
:102860000122034B1A700022064B1A80EEE700BFCC
:10287000190A402088104020810540008925400029
:10288000E90C40001A0A4020024B1860024B196004
:10289000704700BF3811402040114020F0B587B08C
:1028A000022858D1012959D0022916D10B26072414
:1028B00025462E4B03EB04139B7A002B51D0631C4F
:1028C000DBB22A4FDCB2B44240D21D4607EB031103
:1028D000897A581C21B10346F4E74FF0FF3437E002
:1028E000224800EB0310164610220021204B984787
:1028F0001E4B03EB051301229A721E4A1388013303
:102900009BB2138013889BB21BB9138801339BB20F
:102910001380184B1A8892B2144B03EB0513DA801C
:1029200064B216F0010F13D006AA02F8044D0F4B43
:1029300003EB05152123EB7200230293019300930F
:102940000423502102200C4DA84701E04FF0FF3432
:10295000204607B0F0BD4FF0FF34F9E7072600240A
:10296000A6E7024800EB0410BDE700BF8810402036
:10297000810540001A0A4020E506400000292ED0BB
:1029800010B588B0002824DB164B03EB00139B7AAC
:10299000DBB20AB3012B1FD104468DF81C000822BC
:1029A00005A8114B98470F4800EB0410C388ADF8F9
:1029B0001E3000230293019300930C2305AA4121AA
:1029C00002200A4CA047002818BF6FF0080008B08A
:1029D00010BD6FF00500FAE76FF00500F7E76FF044
:1029E00005007047881040206D054000E506400056
:1029F000002822DB144B03EB00139B7ADBB2012B84
:102A00001ED110B586B08DF814008DF815100E4B40
:102A100003EB0010C388ADF8163000230293019336
:102A20000093042305AA42210220084CA047002855
:102A300018BF6FF0080006B010BD6FF005007047BA
:102A40006FF00500704700BF88104020E506400089
:102A500000280ADB064B03EB0010837ADBB2012B64
:102A600014BF6FF00500002070476FF0050070473D
:102A70008810402030B589B00C46003118BF0121C4
:102A8000B2F5AF6F88BF0021002937D0002835DBB1
:102A90001D4B03EB00139B7ADBB2012B31D18DF878
:102AA0001000ADF81220184B03EB0013DB88ADF8D3
:102AB0001C300728B4BF50254425134B03EB0013EB
:102AC000DB7A13F0010F17D00F4B03EB00100589D1
:102AD000ADB24C2102950192009410230DEB03023C
:102AE00041F080010220094CA04700280CBF0020C3
:102AF0006FF00D0009B030BD4521EBE76FF0050028
:102B0000F8E76FF00500F5E788104020E506400083
:102B1000002918BF002A44D070B586B00E4615466D
:102B2000002836DB204A02EB0012927AD2B2012A48
:102B300032D11D4C0101621866509580127B002A2B
:102B40002DD104EB001201211173D27A0A40002A20
:102B50000CBF46214D21D3B94FF0FF3304938DF8BC
:102B60001400114B03EB0010C388ADF8163000239E
:102B7000029301930093082304AA02200B4CA04760
:102B800000280CBF00206FF00D0006B070BD04934C
:102B9000E5E76FF00500F8E76FF00500F5E70020C6
:102BA000F3E76FF00500704788104020E50640000D
:102BB00030B587B0041E2FDB1A4B03EB04139B7A4E
:102BC000DBB2012B2BD18DF81440164B03EB041311
:102BD000DA88ADF8162000229A72DA80DB7A03F0E8
:102BE000010393420292019200924FF0040305AA5E
:102BF0000CBF49214E2102200B4DA847051E18BFCE
:102C00006FF0080510220021064800EB0410074B66
:102C10009847284607B030BD6FF00505F9E76FF01B
:102C20000505F6E788104020E506400081054000D4
:102C300070B582B005462B4B9847C0F30B00B0F53A
:102C4000687F03D20024204602B070BD01A941F282
:102C50001040254B984704460028F4D1234B019A95
:102C6000134023491943019141F21040214B9847E9
:102C700005B3002120481F4DA847AB211F48A84796
:102C800001211F48A84700211E48A84781211E484E
:102C9000A8471E4E1E4D3046A8470128FBD11349B8
:102CA000019B194041F48031019141F21040114BD8
:102CB0009847C8E7002110480E4DA847B9210F4892
:102CC000A84701210E48A84700210E48A8478121A6
:102CD0000D48A8470D4E0E4D3046A8470128FBD1A0
:102CE000DDE700BFDD154000D9184000FF8F88F8F0
:102CF00000101101E5184000080201000C0201005B
:102D0000140201001C02010004020100180201006B
:102D1000CD18400010B51048104B98473E210020B8
:102D20000F4B98470F4CA0470028FCD00E4B9847FC
:102D30000E4A0F4B9A620F4CA0470028FCD002208D
:102D40000D4B984700200D4B98470D4B9847024874
:102D5000024B984710BD00BF00A3E111A539400008
:102D60006D344000C1344000D1344000013F182090
:102D700000060E40E1344000D133400009344000E9
:102D8000993840002DE9F04180B90C469046002A60
:102D90000FDD8F18084E094D306821462B68984783
:102DA0000134BC42F8D14046BDE8F0814FF0FF3815
:102DB000F9E78046F7E700BF4C114020441140205E
:102DC0000138022815D82DE9F0410E4614469AB173
:102DD0000D46DFF838800C4FD8F8000015F8011BBD
:102DE0003B68984700280ADBA81B013CF4D1BDE8EA
:102DF000F0814FF0FF3070471046BDE8F0814FF092
:102E0000FF30BDE8F08100BF481140204C11402048
:102E1000F8B54FF400425C4B5A60BFF34F8FBFF3DD
:102E20006F8F5A4B0022C3F850225A6942F4003285
:102E30005A61BFF34F8FBFF36F8FD3F88070C7F322
:102E40004E3607F007000430C7F3C907B7FA87FE0C
:102E50000EF01F0EBFF34F8F4FF0FF3404FA00FC4B
:102E600006FA00F004FA0EF407FA0EFE1D463A4682
:102E7000734640EA0301C5F86012013A2344B2F1F7
:102E8000FF3FF6D1013E6044B6F1FF3FEFD1BFF303
:102E90004F8F3E4B5A6942F480325A61BFF34F8FD5
:102EA000BFF36F8F3A4A3B495160A1F58071516081
:102EB000BFF34F8FBFF36F8FD3F8902222F0010240
:102EC000C3F89022D3F8942222F00102C3F894228E
:102ED000BFF34F8FBFF36F8F0A202F4CA0470B20FB
:102EE000A0470C20A0471020A0471120A0472B4B43
:102EF0004FF480721A61C3F8A0201A63A3F58063AF
:102F00004FF400625A61C3F8A0205A66C3F89020BB
:102F10005A651A62C3F88420196F21F40061196799
:102F2000596F21F400615967C3F8C020C3F8D42059
:102F3000C3F8B0204FF400121A66C3F890205A6507
:102F40005A62C3F88020196F21F400111967596F74
:102F500021F4001159675A60114AD2F8143143F034
:102F60001003C2F814310F4B10221A66C3F89020D8
:102F70005A655A62C3F88020196F11431967596F57
:102F8000114359675A60F8BD50180E4000ED00E03B
:102F9000000C0E400C08005AF134400000120E40A4
:102FA0000080084000100E400AB901667047416673
:102FB000704701637047416370474264B1F1C05F7D
:102FC0003AD013D8B1F1006F25D0B1F1805F0AD1AA
:102FD000036F13430367436F416F0B4023EA020300
:102FE0004367426070470029FBD17047B1F1205F11
:102FF00021D009D8B1F1005FF3D1036F1343036708
:10300000436F13434367ECE7B1F1405F13D0B1F175
:10301000605F10D0E5E710B4016F046FD343214027
:103020001C4619400167436F416F0B4023404367C3
:1030300042605DF8044B7047036F016F0B4023EA59
:1030400002030367436F13434367CAE7416412F007
:10305000010F0DD1016612F00A0F0BD0016212F0C0
:10306000020F09D112F0080F08D0C0F8841005E053
:103070004166F0E74162F2E7C0F88010416101600B
:10308000704710B4019C41644CB901664BB10165B5
:103090004AB94163016101605DF8044B70474166C4
:1030A000F4E74165F4E70163F4E7836B0B4214BF77
:1030B00001200020704712F0100F12D0C0F8B0109D
:1030C00012F0200F07D0C0F8D41012F0400F05D036
:1030D000C0F8C0107047C0F8D010F6E7C0F8C410B0
:1030E0007047C0F8B410704701647047416470477E
:1030F000C06C7047806C704770B582B00D46464C0E
:1031000004EB5014640201F0F043B3F1005F59D0B6
:103110000AD8B3F1805F2FD0B3F1C05F3FD0B3F1D5
:10312000006F16D0002012E0B3F1405F5DD0B3F124
:10313000605F5AD0B3F1205FF4D100F01F01012687
:103140002A4606FA01F12046344B9847304602B031
:1031500070BD00F01F000126864032464FF000612E
:1031600020462F4B984715F0010F02D1266601200B
:10317000EDE766660120EAE700F01F0001268640C1
:1031800032464FF080512046254B984715F0010FED
:1031900002D126660120DAE766660120D7E700F053
:1031A0001F000126864032464FF0C05120461C4B7E
:1031B000984715F0010F02D126660120C7E7666621
:1031C0000120C4E700F01F000126864032464FF080
:1031D00000512046124B984715F0010F02D1266688
:1031E0000120B4E766660120B1E705F0605200F007
:1031F0001F01012605EA06030093C5F38003B2F11F
:10320000605F14BF0022012206FA01F12046054C3E
:10321000A04730469BE700BF070720004D30400025
:10322000BB2F4000833040002DE9F0410446884622
:103230000E4B9847054620460D4B9847054013D046
:103240000C4C04F1600603E0B4420DD010345DB1C3
:1032500020684045F8D161682942F5D0E368984775
:10326000636825EA0305EFE7BDE8F081F13040002F
:10327000F53040001C0A4020F8B5184C2668062E90
:103280002AD84FF0000C6446154F04E00134E4B234
:10329000A446A64209D3A64625017D598D42F5D103
:1032A00007EB04156D689542F0D10D4D4FEA0E1EE7
:1032B00005EB0E0445F80E106260A3600699E1600C
:1032C0000136664505D011461A46064B9847002040
:1032D000F8BD02490E60F6E70120F8BD8C0A4020D7
:1032E0001C0A4020B730400008B50A210148024BB3
:1032F000984708BD000E0E402932400008B50B214A
:103300000148024B984708BD00100E40293240008A
:1033100008B50C210148024B984708BD00120E4029
:103320002932400008B510210148024B984708BDDA
:1033300000140E402932400008B511210148024B0B
:10334000984708BD00160E4029324000F8B50646E1
:103350000D461446174B984707464FF0FF3130464D
:10336000154B98473046154B98475FFA85FE0EF08F
:103370001F03012202FA03F36809114901EB8002DD
:10338000C2F88030C2F88031002D0ADB6401E4B25B
:103390000C4A545541F82030394630460A4B98477C
:1033A000F8BD0EF00F0E6401E4B2084A02F80E40B8
:1033B000F0E700BFF5304000ED304000F130400054
:1033C00000E100E000E400E0E930400014ED00E03E
:1033D000032811D0042812D002280CBF4FF48071AA
:1033E0000021084A136B23F440730B431363936E5D
:1033F00013F0080FFBD070474FF44071F1E74FF422
:103400000071EEE700060E40174A136B23F07003BD
:1034100018431063936E13F0080F0AD14FF48053D2
:1034200011498A6E12F0080F03D1013BF9D1012036
:1034300070470D4A136B23F0030343F00203136339
:10344000936E13F0080F0AD14FF4805306498A6E29
:1034500012F0080F05D1013BF9D10120704700207F
:1034600070470020704700BF00060E40A0B90E480C
:10347000036A090289B20D4A1A400D4B13431943DE
:1034800001620246936E13F0010FFBD0064A116AE7
:10349000084B0B431362704703490B6A064A1A40F4
:1034A000064B13430B62704700060E40FCFFC8FF3B
:1034B0000100370000003701FCFFC8FE02003701A1
:1034C000024B986E00F48030704700BF00060E403B
:1034D0004FF00052014B9A62704700BF00060E4049
:1034E000024B986E00F00200704700BF00060E40CD
:1034F0003F281ED81F280CD8114B9A6901238340FE
:10350000934318D0012303FA00F00D4B18610020FB
:10351000704720380A4BD3F8082101238340934396
:103520000BD0012303FA00F0054BC3F80001002083
:10353000704701207047002070470020704700BF8F
:1035400000060E4008B5074B984203D0064B984240
:1035500004D008BD1520054B984708BD2A20034B11
:103560009847F6E70080004000800540F1344000B5
:10357000436823F4702343604368090401F4702115
:1035800019434160704710B443F69923046914F05D
:10359000010F03D1013BF9D1012009E083684068A4
:1035A00010F0020F02D0C3F3034010700B80002014
:1035B0005DF8044B704730B443F69924056915F063
:1035C000020F03D1013CF9D101200CE0446814F052
:1035D000020F06D0120402F4702211430BB141F025
:1035E0008071C160002030BC704732B900EB8100AF
:1035F000036B23F001030363704700EB8100036B4F
:1036000043F001030363704732B900EB8100036BA1
:1036100023F002030363704700EB8100036B43F068
:1036200002030363704700EB81010B6B23F0F0038F
:103630000B630B6B1A430A637047431E1944B1FBBB
:10364000F0F0431EFE2B94BF00B24FF0FF307047E6
:103650007AB110B4144600EB81010B6B23F47F4365
:103660000B630A6B42EA04220A6300205DF8044BF4
:1036700070474FF0FF30704710B400EB8101086BCA
:1036800080B208630C6B44EA036343EA02430B63B2
:103690005DF8044B7047436913F0020F02D0C1611B
:1036A0000020704701207047436913F0010F03D0D9
:1036B00083690B70002070470120704710B40B0124
:1036C000934214D9C9004B0803EBC202B2FBF1F2DA
:1036D000D3085C1E4FF6FE718C4201D9012017E021
:1036E000416841F4002141600CE0012010E05908DC
:1036F00001EBC202B2FBF3F2D3085C1E4FF6FE717F
:103700008C42F2D8120402F4E0221A430262002032
:103710005DF8044B70470000084BC0F8E43000230C
:1037200043604362836288230360242303604FF471
:10373000807303604FF400230360704700415355CA
:1037400070B505460C4616460F4B984700220F4BA6
:103750001A60A4B13246216828460D4B98470246AC
:1037600078B96368A1680B4321690B43E1680B4397
:1037700006490B6069680B436B60104670BD0122FF
:10378000FBE70122F9E700BF19374000900A40200B
:10379000BD3640004023036070471023036070472C
:1037A000436913F0020F04D0C1F30801C161002086
:1037B000704701207047436913F0010F05D08369FA
:1037C000C3F308030B600020704701207047FEE739
:1037D00000B583B0254B264A9A4210D0254B234A88
:1037E0009A420CD2013B9B1A23F003030433134487
:1037F0001F4951F8040B42F8040B9A42F9D11E4BB1
:103800001E4A9A420AD2013B9B1A23F00303043357
:103810001344002142F8041B9342FBD1184A194B70
:1038200023F07F039360EFF31083B3FA83F35B0914
:10383000019372B6BFF35F8F0022134B1A70019988
:10384000124A136843F470031360BFF34F8FBFF342
:103850006F8F29B101220C4B1A70BFF35F8F62B6D4
:103860000B4B98470B4B9847FEE700BF00004020EA
:10387000ECB94000D009402078114020D009402008
:1038800000ED00E0000040001400402088ED00E062
:10389000A94040001D3F40003B4B1B6B03F003035E
:1038A000012B1DD083B1022B36D0374B1B6B03F09D
:1038B0007003702B5FD0344B1A6B3449C2F3021281
:1038C0000B68D3400B607047314B5B6913F0800F7E
:1038D00014BF4FF400424FF4FA422C4B1A60E4E755
:1038E000294B1B6A13F0807F03D02A4A274B1A60AA
:1038F000DBE7294A254B1A60234B1B6A03F0700350
:10390000102B05D0202BD0D1224A204B1A60CCE7B7
:10391000224A1E4B1A60C8E71B4B1B6A13F0807FBC
:1039200016D01C4A194B1A60174B1B6B03F003038C
:10393000022BBAD1144A916A926A1448C1F30A411F
:10394000036801FB0333D2B2B3FBF2F30360ACE7CD
:10395000114A0E4B1A600C4B1B6A03F07003102BBC
:1039600005D0202BE0D10B4A084B1A60DCE70B4A4C
:10397000064B1A60D8E7054A13680949A1FB0313EF
:103980005B081360704700BF00060E40180040201F
:1039900010180E40001BB70000093D0000127A000D
:1039A000ABAAAAAA124B984211D9124B984213D92A
:1039B000114B984214D9114B984215D9104B98428B
:1039C00094BF4FF004220F4A0F4B1A6070474FF01C
:1039D00080620D4B1A6070470C4A0B4B1A6070479F
:1039E0000B4A094B1A6070470A4A074B1A60704726
:1039F000FF2C3101FF596202FF869303FFB3C40419
:103A0000FFE0F50500050004000C0E400001000475
:103A100000020004000300040A4B1B6853B1094B69
:103A20001B681A180849914208DB1046054A1060C5
:103A300018467047054A034B1A60F0E74FF0FF3015
:103A4000704700BF940A4020FCFF45207833402097
:103A50004FF0FF3070474FF400534B600020704729
:103A6000012070470020704710B582B02C2803D089
:103A700032281BD002B010BD0B78012B10D0002BC8
:103A8000F8D11148114B98470022114B1A70FF23AF
:103A90000093104B02220B210F48104CA047E9E77E
:103AA0000F480A4B98470F4B9847E3E70122084B12
:103AB0001A708B784A780878C978009101460A48CC
:103AC000024CA047D6E700BF88B64000F94040004E
:103AD0004C104020C4B64000D0B64000BD1340009A
:103AE00050B6400009144000DCB64000F0B583B089
:103AF00005460C46002301932A4B984213D02A4BCB
:103B0000984218D0294B98421DD0294B9D4222D073
:103B1000284B9D4227D0284B9D422ED0274B9D42BB
:103B200035D003B0F0BD1F46254E21463846B0477C
:103B30000028FAD1E9E71F46214E21463846B04712
:103B40000028FAD1E4E71F461D4E21463846B0470B
:103B50000028FAD1DFE71F46194E21463846B04704
:103B60000028FAD1DAE71E46164D01A93046A847CB
:103B70000028FAD1019B2370D3E71E46114D01A9FD
:103B80003046A8470028FAD1019B2370C9E71E469A
:103B90000C4D01A93046A8470028FAD1019B23709B
:103BA000BFE700BF00080E40000A0E40001A0E409A
:103BB000001C0E40004002400080024000C0024055
:103BC000A9364000B737400070B50C462A4B9842E2
:103BD00013D02A4B984219D0294B98421FD0294B19
:103BE000984225D0284B98422BD0284B984231D070
:103BF000274B984237D0002070BD1E46254D2146E8
:103C00003046A8470028FAD1012070BD1E46214D3C
:103C100021463046A8470028FAD1012070BD1E4633
:103C20001C4D21463046A8470028FAD1012070BD1E
:103C30001E46184D21463046A8470028FAD10120DB
:103C400070BD1E46144D21463046A8470028FAD1C3
:103C5000012070BD1E46104D21463046A847002861
:103C6000FAD1012070BD1E460B4D21463046A847B3
:103C70000028FAD1012070BD00080E40000A0E4055
:103C8000001A0E40001C0E4000400240008002401E
:103C900000C0024097364000A137400010B50446EE
:103CA0001049114B984770B1104920460E4B984768
:103CB00070B10F4920460C4B984770B90C480D4B1A
:103CC0009847022010BD0C480A4B9847002010BDB1
:103CD0000648084B9847012010BD0848054B9847F7
:103CE000032010BD20B44000C94340000CB4400084
:103CF00044B44000F940400030B44000F4B3400008
:103D000070B590B01446013906295CD8DFE801F09F
:103D1000041D5B375B5D580012B192F9003053B15E
:103D20006048614B9847614C94F90000604B98479C
:103D3000FF23237047E05F485B4B984700215B4BB4
:103D400093F900005C4B98473DE012B192F90030C6
:103D500053B15A48544B9847544C94F90000544B73
:103D60009847FF2323702EE055484F4B9847002279
:103D700011464E4B93F90000524B984723E0A2B1F5
:103D80005148494B984700221146484B93F900008F
:103D90004C4B984794F900004C4B1870002340F2AC
:103DA000B4524B494B4CA0470DE04B483E4B984713
:103DB0003E4C94F900003E4B9847FF23237002E0ED
:103DC0004648394B984710B070BD002A5FD0B2F911
:103DD0000430002B5BDD1068414B9847032812D854
:103DE000DFE800F0022D3A4A4FF480713D483E4B27
:103DF00098476D463D4E0FCE0FC5336825F8023B00
:103E00001B0C2B701226314D00233246694695F962
:103E10000000374EB047B4F9042000212068354E29
:103E2000B047B4F9042000212068B047002340F2D5
:103E3000B452274995F90000264CA047C3E74FF438
:103E4000807128482C4B98476D462C4E0FCE0FC5DD
:103E500033682B801126D6E74FF480712148284B18
:103E60009847284B284A002818BF1A462749684611
:103E7000274B984786B2C6E76D46264E0FCE0FC534
:103E800096E8030045F8040B29801526BBE7224875
:103E9000054B9847054C94F90000054B9847FF23C4
:103EA000237090E734B54000F940400023004020E3
:103EB000B12B400018B54000F129400070B540001A
:103EC00050B54000512A40008CB5400022004020EF
:103ED000980A4020112B4000ACB54000C8B5400006
:103EE0009D3C400000120E40B72F400010B640002D
:103EF000752A400021414000B32F400024B6400005
:103F0000AB30400014B5400010B54000E4B54000AF
:103F10005D43400038B64000F4B5400070B592B043
:103F20003E4B98473E4B98470E203E4EB0473E4D85
:103F30003E4B1D603E4A3F4B1A603F4A3F4B1A6062
:103F40004FF4E1330293C02303934FF400630493CF
:103F50000024059406940E20B047394A02A9284649
:103F6000384B98472846384B98472846374B984750
:103F7000374E336821469868364DA8473368214646
:103F80005868A8473448354B9847354B9847022323
:103F9000ADF8203040F61A23ADF8223009940D9484
:103FA0000E940F94109411942E4B0C930CA82E4B3E
:103FB000984720B101462D48284B9847FEE72C48EA
:103FC0002C4B98472C4B984700212C482C4B98475A
:103FD000FF2300932B4B02220B212B482B4CA04795
:103FE0002B4D2C4C2C4E02E02C481C4B98470020AB
:103FF000A8472378012BFAD196F90030002BF6DA86
:10400000002201210220264B984730700028EBDB6C
:10401000102208A9234B9847E9E700BF152D40005F
:10402000112E4000F1344000008002404C1140202D
:10403000C93B400048114020ED3A40004411402067
:1040400080D1F00841374000953740009B37400051
:1040500024004020BD41400054B44000F9404000DD
:1040600025024000693A400065104000B4B44000A9
:104070001C004020D913400045284000013D40006D
:1040800089284000C4B64000D0B64000BD134000AF
:10409000611140004C10402023004020DCB440005F
:1040A0009D2840007D29400070B50F4E0F4D761BB6
:1040B000B61018BF002405D0013455F8043B9847CA
:1040C000A642F9D10A4E0B4D761B07F079FCB610CB
:1040D00018BF002406D0013455F8043B9847A64287
:1040E000F9D170BD70BD00BFCCB94000CCB9400063
:1040F000D4B94000CCB940000FB400B5074983B033
:1041000004AB086853F8042B8168019301F034FD77
:1041100003B05DF804EB04B0704700BF24004020FA
:1041200070B4860746D0541E002A41D0CAB2034656
:1041300002E014F1FF343BD303F8012B9D07F8D1C3
:10414000032C2ED9CDB245EA05250F2C45EA0545AD
:1041500019D903F110022646103E0F2E42F8105CCA
:1041600042F80C5C42F8085C42F8045C02F1100270
:10417000F2D8A4F1100222F00F0204F00F04103262
:10418000032C13440DD91E462246043A032A46F84E
:10419000045BFAD8221F22F003020432134404F015
:1041A00003042CB1C9B21C4403F8011B9C42FBD18F
:1041B00070BC704714460346C2E700BF00290CBF1D
:1041C000022200224FF4806300F000B82DE9F04392
:1041D000614C256883B004460F4690461E4615B1D3
:1041E000AB6B002B64D0B8F1020F06D0B8F1010F11
:1041F00000F29F80002EC0F29C80636ED80734D5F9
:104200002146284603F016FC216B41B104F140031E
:10421000994202D0284603F08BFD00232363B4F9B2
:104220000C300022A26162601A063AD423F44A6379
:1042300023F00303B8F1020FA3811DD001AB6A463E
:104240002146284604F020F8A3891843A081002EB7
:1042500032D1009E304604F08FF8074600286BD01C
:10426000A38943F08003A38128E0A3899905C7D4DB
:10427000A06D04F005F8C3E70025616E002604F187
:10428000430243F002030120A660CE07A38122600F
:104290002261606101D498053ED5284603B0BDE88F
:1042A000F0832169284603F043FDB4F90C30BDE7E3
:1042B000284603F017FC96E7002FCBD0AB6B002B02
:1042C00033D0009BB4F90C2027609E421CBF42F4FF
:1042D0000062A281B8F1010F04BF42F00102A28185
:1042E00092B212F00803276166610ED0D1071AD589
:1042F000656E7642002315F00105A661A36009D022
:104300000025284603B0BDE8F083A360656E15F074
:104310000105F5D19305C0D4A06D03F0B3FF284685
:1043200003B0BDE8F083A660F0E7284603F0DAFBAF
:10433000C7E74FF0FF35B0E7DDF80090B14504D096
:10434000484604F019F8074620B9B4F90C304FF08C
:10435000FF3592E74E4683E7240040200EB4F0B5C7
:104360009CB021AB0F4953F8042B019305466FF025
:104370000044086802954FF402774FF6FF7602A9D1
:104380000695ADF8147004940794ADF8166000F02B
:1043900085F9029B00221A701CB0BDE8F04003B002
:1043A000704700BF24004020000000000000000013
:1043B00000000000000000000000000000000000FD
:1043C000A2EB0300704700BF02780B78012A28BFD8
:1043D0009A42F5D16DE9044540EA0104CDE902674E
:1043E0006FF0000C4FEA447212B380EA010414F03B
:1043F000070F6AD100F0070420F0070004F003055E
:1044000021F007014FEAC505F0E8042314F0040F7A
:10441000F1E804670CFA05F462EA040266EA0406AD
:104420000AD063EA0403624667EA0407664603E0CB
:10443000F0E80423F1E8046782FA4CF582EA060406
:10444000A4FA8CF46CBB83FA4CF583EA0705A5FA51
:104450008CF595B950E9022351E9026782FA4CF5CF
:1044600082EA0604A4FA8CF483FA4CF583EA070581
:10447000A5FA8CF52543DBD09CB92DBAB5FA85F4A5
:1044800024F0070427FA04F1DDE9026723FA04F3B4
:1044900003F0FF0001F0FF01FDE80445A0EB01007F
:1044A000704724BAB4FA84F424F0070426FA04F11D
:1044B000DDE9026722FA04F202F0FF0001F0FF01D9
:1044C000FDE80445A0EB0100704714F0030F3CD158
:1044D00010F0030428D150F8082B51F8083B82FA59
:1044E0004CF582EA0305A5FA8CF55DB950F8042C69
:1044F00051F8043C82FA4CF582EA0305A5FA8CF5E2
:10450000002DE8D02DBAB5FA85F424F0070423FA7B
:1045100004F122FA04F202F0FF0001F0FF01FDE8CD
:104520000445A0EB010070474FEAC40420F00300EB
:1045300050F8082B21F0030151F8083B0CFA04F461
:1045400062EA040263EA0403C9E710F003041AD024
:10455000A1EB040120F00300E40750F8042B06D07F
:104560000FD28B785FFAA2F4E41A06D12BB1CB7884
:104570005FFAB2F4E41A00D11BB920465DF8104B83
:10458000704701F1040150F8042BCC0721F003011E
:1045900051F8043B48D824D222F07F4482FA4CF5EB
:1045A00094EA1325A5FA8CF50AD165B951F8043BB4
:1045B00084EA0204B4EB036F0ED150F8042BEBE74E
:1045C0004FEA132355E035F07F454DD10878FDE8DB
:1045D0000445C0F1000070474FEA126203F0FF0388
:1045E00047E002EA1C4482FA4CF594EA1345A5FA26
:1045F0008CF50AD165B951F8043B84EA0204B4EBA6
:10460000034F0CD150F8042BEBE74FEA134330E093
:1046100015EA1C4528D10B884FEA124229E04FEADF
:10462000124203EA1C4324E002F0FF0482FA4CF534
:1046300094EA1365A5FA8CF50AD165B951F8043BE3
:1046400084EA0204B4EB032F09D150F8042BEBE702
:104650004FEA13630DE015F0FF0F05D10B684FEA29
:10466000122223F07F4304E04FF00000FDE80445F0
:10467000704712BA1BBA82FA4CF482EA0304A4FA15
:104680008CF5B5FA85F402FA04F203FA04F34FEA62
:104690001260FDE80445A0EB136070472DE9F04F70
:1046A000C3B00C460B9192460F930C9003F0D6FDCD
:1046B00003681A93184604F083FFA389199019061A
:1046C00003D52369002B01F0038000230DF1C809F5
:1046D0001393159314932793269318931B9309937D
:1046E000CDF89490C846169317939AF80030544624
:1046F000E3B1252B02D119E0252B03D014F8013F9B
:10470000002BF9D1A4EB0A0585B1269B279AC8F89E
:1047100000A001332A44072BC8F80450279226939F
:104720007FDC08F10808099B2B4409932378002BB0
:104730007FD000231A468DF8773019460D939B469B
:104740004FF0FF3063780A9004F1010A0AF1010A80
:10475000A3F12000582800F2C183DFE810F03802EE
:10476000BF03BF034002BF03BF03BF03BF03BF03B9
:10477000BF0345020302BF035D006B02BF03860255
:104780009D039D039D039D039D039D039D039D0329
:104790009D03BF03BF03BF03BF03BF03BF03BF032B
:1047A000BF03BF03BF0337035703BF035703BF0351
:1047B000BF03BF03BF039803BF03BF03AD03BF0322
:1047C000BF03BF03BF03BF035902BF03BF031E03E1
:1047D000BF03BF03BF03BF03BF03BF03BF03BF03C9
:1047E000BF03BF03C602DB025703570357038B0205
:1047F000DB02BF03BF039002BF039D02CC01B402E2
:104800000802BF03E101BF037E00BF03BF030D0227
:104810000D980F9340420D904BF0040B9AF8003026
:1048200094E725AA0B990C9804F038FF40B9C846C4
:1048300079E7279B23B10C980B9925AA04F02EFF4A
:104840000B9B9B8913F0400F099B18BF4FF0FF3360
:104850000993099843B0BDE8F08F1BF0200F119326
:1048600040F0DD810F9A1BF0100F134640F06E856B
:104870001BF0400F00F06A851488043200250123E4
:104880000F9200278DF877700A994A1C00F0658214
:104890002BF08002079254EA050240F0648200295E
:1048A00040F03C84002B40F0D7841BF001030E93B2
:1048B00000F0048642AE302306F8413D0A9B0E9A72
:1048C0009342B8BF134608930023129317B1089B75
:1048D00001330893079B13F00203109302D0089B47
:1048E00002330893079B13F0840540F00E830D9B61
:1048F000089AA3EB020BBBF1000F40F30683BBF158
:10490000100F279C269A29DD43462146A8461027EA
:104910000C9C0B9D06E0ABF1100BBBF1100F03F1EB
:10492000080318DD0132B74826921031072A279173
:1049300083E88100EFDD25AA2946204604F0AEFE7B
:1049400000287FF47DAFABF1100BBBF1100F27995E
:10495000269A4B46E6DC45460C4698460132A94B62
:1049600026925C44072A279488E8080800F3988474
:104970009DF8777008F1080877B1269B0133013460
:104980000DF177010122072B2794269388E8060072
:1049900000F3DB8308F10808109B6BB1269B013301
:1049A00002341EA90222072B2794269388E80600CA
:1049B00000F3D68308F10808802D00F015830A9BC8
:1049C0000E9A9F1A002F36DD102F269B8E4D27DD65
:1049D00042462146B0464FF0100B2E460C9C0B9DD4
:1049E00004E0103F102F02F1080215DD01331031F1
:1049F000072B2791269382E84008F2DD25AA294655
:104A0000204604F04BFE00287FF41AAF103F102F11
:104A10002799269B4A46E9DC35460C464646904691
:104A200001333C44072B2794269388E8A00000F329
:104A3000818308F10808079BDF0500F16882269B47
:104A40000E99C8F8006001330C44072B2794C8F86E
:104A50000410269300F34D8308F10808079B5B07B9
:104A60003AD50D9B089A9D1A002D35DD102D269BF9
:104A700020DD10260C9FDDF82CB004E0103D102D39
:104A800008F1080816DD01335E4A26931034072B1F
:104A9000279488E84400F1DD25AA5946384604F0F9
:104AA000FDFD00287FF4CCAE103D102D279C269BE9
:104AB000C846E8DC0133534A26932C44072B27943D
:104AC00088E8240008DD25AA0B990C9804F0E6FD7F
:104AD00000287FF4B5AE279C099B0D9A08998A425D
:104AE000ACBF9B185B180993002C40F00D8300238A
:104AF0002693C846F9E511931BF0200340F0E381AB
:104B00001BF0100240F02E841BF0400300F02A84BA
:104B10000F9913460A4604320C880F920025B0E61E
:104B20000F9A1193166800248DF87740151D002EFA
:104B300000F0A7860A9A531C00F0098621463046E9
:104B400003F0EEFE002800F0E186831B0E930A942A
:104B50000F95CDF81CB023EAE373089312949DF8E7
:104B60007770B3E69AF8003001222B21EEE54BF086
:104B7000200B9AF80030E9E51193002A40F0958760
:104B8000224B18931BF0200F40F011810F9A1BF05D
:104B9000100F134640F0E1831BF0400F00F0DD835F
:104BA000043314880F9300251BF0010F00F00C81D3
:104BB00054EA050300F0088130239DF844208DF865
:104BC00078308DF879204BF0020B022359E69AF8E1
:104BD000003000297FF4BAAD01222021B6E54BF068
:104BE000010B9AF80030B1E50F9C23680D9318462D
:104BF0000028234603F10403FFF60AAE0F939AF848
:104C00000030A3E55CB740006CB740003CB7400003
:104C10004BF0100B1BF0200F11933FF423AE0F9DB0
:104C2000073525F0070303F10802D3E900450F9289
:104C3000012326E69AF800302A2B0AF1010400F03D
:104C40002787A3F130000928A24600F2AD86002391
:104C50001C461AF8013B04EB840400EB4404A3F166
:104C600030000928F5D90A9472E54BF0800B9AF8C8
:104C700000306BE54BF0400B9AF8003066E59AF88F
:104C800000306C2B03BF9AF801304BF0200B0AF177
:104C9000010A4BF0100B59E5002A40F011871BF078
:104CA000200F40F0F9841BF0100F40F0AC841BF093
:104CB000400F00F0A8840F9A136804320F92BDF8D9
:104CC00024201A8011E50F99B34B0C6818933022F9
:104CD000782304318DF8793011934BF0020B0F914A
:104CE00000258DF878200223CBE50F9911930A68EF
:104CF0008DF8A02000230A461F468DF87730043235
:104D000001230893CDF81CB00A9712970F920E93C7
:104D100028AEDFE51193002A40F0EA861BF0200F51
:104D20005DD11BF0100F40F008831BF0400F00F026
:104D300004830F99B1F900400431E51722462B4650
:104D40000F91002A73F1000358DB0A999DF87770E0
:104D50004A1C4FF001037FF49BAD54EA050200F0BA
:104D6000DF81CDF81CB0012B00F07B82022B40F0DC
:104D7000068218984E46230904F00F0143EA057392
:104D80002A091C461546435C06F8013D54EA050312
:104D9000F1D1A9EB06030E9390E51193002A40F0A0
:104DA000A3867E4B18931BF0200F3FF4EFAE0F9DB0
:104DB000073525F0070303F108021BF0010F0F92DE
:104DC000D3E900457FF4F4AE02235AE51193002A9B
:104DD00040F086864BF0100B1BF0200FA1D00F9DEA
:104DE000073525F00705D5E90023002A05F108015C
:104DF0001D4673F100030F911446A6DA2D27644275
:104E000065EB45058DF8777001233DE51193002A88
:104E100040F062860F9D073525F0070303F1080275
:104E20000F921A6815925B681493149B159D23F0DA
:104E30000044284621464FF0FF32594B05F0FCFA5A
:104E4000002840F04A83284621464FF0FF32544B59
:104E500005F0D4FA002840F0408315A80DC8149935
:104E600005F0C2FA002840F030859DF877704D4E6D
:104E70004D4B2BF0800007901198032200210892DF
:104E80000A914728D8BF1E460E9212911EE54BF09C
:104E9000080B9AF8003059E4A3F1300000231C46B7
:104EA0001AF8013B04EB840400EB4404A3F1300046
:104EB0000928F5D90D944BE44BF0100B11931BF01E
:104EC00020033FF41DAE0F9D073525F0070303F1C6
:104ED0000802D3E900450F920023D2E41193002A7F
:104EE00040F0E785119A002A3FF4A3AC002301218A
:104EF0001F4608918DF8A020CDF81CB08DF87730B2
:104F00000A9312930E9128AEE4E4279C34E5119B9A
:104F1000652B40F3A78015A80DC8149905F05AFA1F
:104F2000002800F05081269B204AC8F80020013359
:104F300001340122072B27942693C8F8042000F39C
:104F40006A8308F108081F9B139A279C934203DB8E
:104F5000079BDD077FF582AD269B19991A9AC8F841
:104F6000002001330C44072BC8F804102794269323
:104F700000F39E8308F10808139B5E1E002E7FF746
:104F80006DAD102E269B0A4D40F3F5812246102769
:104F9000DDF830B00B9C13E03CB7400028B7400070
:104FA000FFFFEF7F1CB7400018B7400058B7400024
:104FB0006CB7400008F10808103E102E40F3DA816B
:104FC00001331032072B2792269388E8A000F1DDE9
:104FD00025AA2146584604F061FB00287FF430AC36
:104FE000279A269BC846E7E70D9B089A9F1A002F31
:104FF0007FF7E5AC102F269BB64D27DD42462146B4
:10500000B0464FF0100B2E460C9C0B9D04E0103F59
:10501000102F02F1080215DD01331031072B279103
:10502000269382E84008F2DD25AA2946204604F0AE
:1050300035FB00287FF404AC103F102F2799269BE6
:105040004A46E9DC35460C464646904601333C4428
:10505000072B2794269388E8A00000F3328208F1FA
:105060000808ACE4139B269F012B40F3FE81013717
:1050700001340123072F27942697C8F80060C8F849
:10508000043000F3038208F10808199A1A9BC8F843
:10509000003001371444072F27942697C8F80420BE
:1050A00000F3008208F1080815A80DC8149905F04E
:1050B00091F9139B002840F00181013B0137013633
:1050C0001C44072F26972794C8F80060C8F80430BE
:1050D00000F3278108F108081B9AC8F8042001375B
:1050E000144421AB072F27942697C8F800307FF788
:1050F000B3AC25AA0B990C9804F0D0FA00287FF4E1
:105100009FAB279CC846A9E425AA0B990C9804F0EC
:10511000C5FA00283FF4EBACFFF792BBDDF81CB0FA
:10512000012B00F03481022B25D1CDF81CB00024D6
:1051300000251EE625AA0B990C9804F0AFFA00286A
:105140007FF47EAB279CC84675E425AA0B990C9882
:1051500004F0A4FA00287FF473AB279CC8461BE434
:1051600025AA0B990C9804F099FA00287FF468ABF3
:10517000279CC84620E4CDF81CB0002400254946F1
:1051800000E03146E20842EA4572E80804F007030D
:1051900005461446303354EA050201F8013C01F19A
:1051A000FF36EED1079AD2077FF5F3AD302B3FF4EF
:1051B000F0AD0239302306F8013CA9EB01030E9350
:1051C0000E46FFF77BBB1F99002940F32E82129BEE
:1051D000139A9342A8BF1346002B1F460DDD269B52
:1051E000C8F8006001333C44072B2794C8F80470CA
:1051F000269300F31F8308F10808129B002FA8BF15
:10520000DB1B002B1F4640F3D680102F269B314D11
:1052100040F3ED8142462146B0464FF0100B2E463A
:105220000C9C0B9D04E00832103F102F40F3DB81F3
:1052300001331031072B2791269382E84008F2DDD5
:1052400025AA2946204604F029FA00287FF4F8AA66
:105250002799269B4A46E7E70A9B0E934E46FFF79F
:105260002DBB002D08BF0A2CC0F08F804E46204673
:1052700029460A22002305F01DF9303206F8012DD7
:105280002046294600230A2205F014F904460D465B
:1052900054EA0503EBD1A9EB06030E93FFF70EBB0F
:1052A00025AA0B990C9804F0F9F900287FF4C8AAF4
:1052B0009DF87770279CC846FFF75EBB5E1E002EE8
:1052C0007FF70AAF102E034D22DD22464FF0100B60
:1052D0000C9C06E06CB74000103E102E08F1080848
:1052E00015DD01371032072F2792269788E820080E
:1052F000F2DD25AA0B99204604F0D0F900287FF4AE
:105300009FAA103E102E279A269FC846E9DC144615
:1053100001373444072F2794269788E860007FF7E9
:10532000D9AE25AA0B990C9804F0B8F900287FF49F
:1053300087AA279C269FC846CEE60F9A1468134674
:105340000433E5170F9322462B46FAE404321C6817
:105350000F9201230025FFF794BA1C6804330F93C2
:10536000002521E40F990A4604320C680F920025AB
:10537000FFF787BA144601333444072B279426934A
:1053800088E860007FF768ABB3E6DDF81CB0CDF8C5
:105390001CB042AE3034012306F8414D0E93FFF7A6
:1053A0008DBA25AA0B990C9804F078F900287FF49F
:1053B00047AA279CC8461F9A139B9A4244DB079B27
:1053C000D90741D4139B12989A1A1D1A9542A8BF67
:1053D0001546002D0EDD2699C8F80450013106440B
:1053E0002C440729C8F800602794269100F33B82DB
:1053F00008F10808002DACBF561B1646002E7FF79B
:105400002DAB102E269BB04DB5DD22461027DDF8C2
:1054100030B00B9C04E008F10808103E102EA9DD06
:1054200001331032072B2792269388E8A000F2DD83
:1054300025AA2146584604F031F900287FF400AA35
:10544000279A269BC846E8E7269B19981A99C8F818
:10545000001001330444072B2794C8F80400269356
:1054600000F3F58108F10808ACE7079BDA073FF580
:10547000FEAD013701340123072F27942697C8F882
:105480000060C8F804307FF725AE4AE725AA0B99DB
:105490000C9804F003F900287FF4D2A9279C269FDA
:1054A000C846F2E525AA0B990C9804F0F7F80028F5
:1054B0007FF4C6A9279C269FC846F5E54E46FFF710
:1054C000FDB925AA0B990C9804F0E8F800287FF4A0
:1054D000B7A9279CC846FFF772BA159C22462046FA
:1054E000149C2346214604F0A7FF002840F0868242
:1054F0000A9B0133119B23F020030E9300F0E281FD
:10550000472B00F01E814BF480730793149B1F1EE2
:10551000159B0893BBBF3B4603F1004700232D2397
:105520001093119B662B00F0BB81462B00F0DF80AF
:105530000E9B089A452B0CBF0A9B0A9D23A820A905
:1055400008BF5D1C049003911FA802213B460290F6
:10555000019500910C9801F0A3FA119B672B064668
:1055600040F0E0811BF0010F00F046827419169A9A
:105570000898179B394604F02DFF002840F06581FC
:10558000239BA34206D230215A1C23921970239BDD
:105590009C42F9D89B1B13930E9B472B00F0E9808C
:1055A000119B652B40F3CD81119B662B1F9B1293A2
:1055B00000F09E81139B129A1946914200F38A8152
:1055C0001BF0010F40F0138222EAE2730893672375
:1055D0000E921193109B002B40F0C4800A939DF80B
:1055E0007770FFF773B935460C464646904601334F
:1055F0003C44072B2794269388E8A0003FF7D1AEC0
:1056000008F10808D7E60F9A136804320F92099A36
:105610001A60FFF76AB825AA0B990C9804F03EF8B7
:1056200000287FF40DA9C8468DE4269B274AC8F8B8
:105630000020013301340122072B27942693C8F858
:10564000042072DC08F1080829B9139B1BB9079BD9
:10565000D8077FF503AA269B19981A9AC8F8002044
:10566000013302462244072B2792C8F804002693F0
:1056700000F38D8108F108080029C0F265811399B3
:10568000C8F8006001338C18072B27942693C8F8BC
:1056900004107FF7E1A92CE50F9A09991368CD173B
:1056A0000846043229460F92C3E90001FFF71DB8EE
:1056B00025AA0B990C9803F0F1FF00287FF4C0A8ED
:1056C000279CC84658E400BF6CB7400058B740005C
:1056D00040210C9802F058FE0B9A106010610028CF
:1056E00000F0F2810B9A40235361FEF7EEBF23A82E
:1056F00020A90A9C049003911FA803210290089AF4
:1057000001943B4600910C9801F0CAF925460646E3
:10571000119B462B06EB05047FF429AF3378302B21
:1057200000F078811F9D2C4421E725AA0B990C9845
:1057300003F0B4FF00287FF483A81F99279CC84674
:1057400082E70A9B002B08BF01230A93DBE6304661
:105750000A9403F035FF0F950E90CDF81CB0034668
:10576000FFF7F9B92D2700238DF877700A93FFF71B
:10577000AEB81F9B12931A46033304DB0A9B1946EB
:105780009142BFF617AF119B023B11939DF8443035
:105790008DF88430129B013B002B1F93BDBF129BE1
:1057A000C3F101032D222B22092B8DF8852040F314
:1057B00016810DF193042046AB4D00E0104685FBA9
:1057C0000312D917C1EBA20101EB8102A3EB420244
:1057D0003032092900F8012C0B4600F1FF32EDDCD4
:1057E00030330238D9B2844202F8011C40F265819C
:1057F0000DF18600134601E013F8011B00F8011BB0
:10580000A342F9D101339B1A0DF18602134421AA58
:105810009B1A139A1B93012A13440E9340F3198188
:105820000E9B199A13440E9323EAE3730893002303
:105830001293CFE625AA0B990C9803F02FFF0028AE
:105840007EF4FEAF279CC846D7E42346A2E625AAED
:105850000B990C9803F022FF00287EF4F1AF1F9AF9
:10586000279CC846AEE525AA0B990C9803F016FFB5
:1058700000287EF4E5AF1F9A139B279C9A1AC8460E
:10588000B8E50A9B1296062B28BF06230A963746D0
:1058900008930F95CDF81CB00E93744EFFF716B811
:1058A00023A820A90A9D049003911FA80321029018
:1058B000089A01953B4600910C9801F0F1F80646D4
:1058C00044192BE706230A931DE62D278DF87770E0
:1058D000FFF7CDBA199A139B1344129A0E93002A1C
:1058E00040F3B08023EAE37308936723119371E6D2
:1058F000002B40F3C3800A9A002A40F099801BF0E5
:10590000010F40F0958008930E9363E60A9B08937D
:105910000E930A900F95CDF81CB012909DF87770F9
:10592000FEF7D4BF119B472B7FF420AE1BF0010F75
:105930007FF4EEAE239B9B1B13930E9B472B3FF4F0
:1059400018AF1F9B129321E74F421031484D2FDAB9
:105950001024DDF830B004E008F10808103F102FE3
:1059600026DD01331032072B27922693C8F800500A
:10597000C8F80440F0DD25AA0B99584603F08EFEC6
:1059800000287EF45DAF279A269BC846E6E725AA45
:105990000B990C9803F082FE00287EF451AF1F99FA
:1059A000279A269BC84667E600200A90FEF7D0BEDD
:1059B00001333A44072B88E8A0002792269308F188
:1059C00008087FF75CAE25AA0B990C9803F066FED9
:1059D00000287EF435AF279A269BC8464FE6303321
:1059E00030228DF887308DF8862022AB0FE7129B8E
:1059F000199A13440E9375E7239BCBE5149B1D4E18
:105A0000002BB6BF2D279DF877708DF877701A4B55
:105A1000FFF72FBA169A0898179B394604F0DAFC5C
:105A200000287FF47FAEC5F101051F952C449EE54B
:105A3000129B199A13440A9A1A4422EAE2730E92AC
:105A40000893C7E5129B0E9AC3F101031A4413464B
:105A5000D0E71BF0010312937FF4E2AE0E9B23EA22
:105A6000E3730893B6E500BF6766666650B740000B
:105A70006CB7400024B7400020B740000A9B13B920
:105A80001BF0010F02D0199B0133D4E701233AE741
:105A90000F9D9AF80130286840EAE0700A90284685
:105AA0000430A2460F90FEF751BE8DF87710FFF735
:105AB00067B88DF87710FFF715BA0DF18603A6E6E3
:105AC0008DF87710FFF7EBB80C9A0C2313604FF0AA
:105AD000FF330993FEF7BDBE8DF87710FFF79AB933
