:020000040040BA
:10000000D0E44020B9284000B7284000B72840007D
:10001000B7284000B7284000B72840000000000083
:10002000000000000000000000000000AD054000DE
:10003000B7284000000000004D064000B506400013
:10004000B7284000B7284000B7284000B728400034
:10005000B7284000B7284000B7284000B728400024
:10006000B728400000000000152540002925400069
:100070003D254000B7284000B7284000B728400081
:100080005125400065254000B7284000B7284000B2
:10009000B7284000B7284000B7284000B7284000E4
:1000A00005344000B7284000B7284000B72840007A
:1000B000B7284000F9034000B7284000B7284000A7
:1000C000B7284000B7284000B7284000B7284000B4
:1000D00000000000B728400000000000B7284000E2
:1000E0000D044000B7284000B7284000B728400062
:1000F000B7284000B7284000B7284000B728400084
:10010000B7284000B7284000B7284000B728400073
:10011000B7284000000000000000000000000000C0
:10012000B7284000B7284000B7284000B728400053
:10013000B728400000000000B7284000B728400062
:1001400010B5054C237833B9044B13B10448AFF311
:1001500000800123237010BDB8094020000000007A
:10016000D49C40000C4B43B10C480D4910B5AFF383
:1001700000800C48036823B910BD0A48036833B9EE
:100180007047094B002BF7D0BDE810401847064BCD
:10019000002BF5D0184700BF00000000D49C4000A1
:1001A000BC094020D49C40000000000070B582B023
:1001B000026BC36A1340019300241C4E1C4DA842DD
:1001C00014BF0020012005010BE00E2C1ED8019A5F
:1001D00004F10C0101238B40134210D10134102C87
:1001E00022D00B2CF1D8019A0123A3401342F5D061
:1001F0002B1956F82330002BF0D09847EEE72B1937
:1002000056F82330002BE9D09847E7E7019A04F12C
:100210000F0101238B401342E0D02B1956F82330F5
:10022000002BDBD09847D9E702B070BDDCC340207B
:100230000040064030B4046E01238B4024EA0304DE
:100240001578002D08BF002323430366446D4B003F
:100250000321994024EA01045178994021434165E2
:1002600030BC704700220260084B4360084B83603B
:100270004FF48023C3600223037401234374837407
:10028000C274037543758375704700BF00A3E11105
:10029000808D5B00002303700123437070470000D2
:1002A000026B12F0807201D01920704710B4012344
:1002B0000360CB7C002B18BF4FF000424B688C686A
:1002C000B3FBF4F3013B1B029BB2CC6844F4000483
:1002D00023430C7C240604F0706423434C7C2407E5
:1002E00004F040542343134343600B7D002B14BFA1
:1002F0004FF0807300230A6813434A7D002A14BF1D
:100300004FF000720022134383608B7D1B0203F4C5
:10031000407343F00C03C0F894300F4B984206D062
:100320000E4B98420DD000205DF8044B70470C4BEB
:1003300003F14001002243F8042F8B42FBD100203F
:10034000F2E7084B03F14001002243F8042B8B42F3
:10035000FBD10020E8E700BF00C00340004006409A
:10036000D8C340201CC440200C4B994207D00B2915
:100370000BD806D0012303FA01F1416270474362B2
:1003800070474FF40063436270470E2994BF0C31ED
:100390000F31012303FA01F141627047FF0F00475B
:1003A00038B5114CA0420CBF102400240C440F4D52
:1003B00045F824200AD10E4A4FF48074C2F88441D3
:1003C0005B01DBB282F82833546009E0084A4FF041
:1003D0000054C2F880415B01DBB282F81D33146027
:1003E000044B984738BD00BF00400640DCC34020A6
:1003F00000E100E06903400008B50248024B98475D
:1004000008BD00BF00C00340AD01400008B5024870
:10041000024B984708BD00BF00400640AD014000B8
:1004200000B583B0134B98420CBF28201D20124BFF
:100430009847124B9B78FF2B1AD0EFF31083B3FA37
:1004400083F35B09019372B6BFF35F8F00220C4BFD
:100450001A700199094A93780133937029B10122E6
:10046000074B1A70BFF35F8F62B603B05DF804FBF1
:10047000FEE700BF0040064099264000D4C340205C
:100480000400402000F1080343604FF0FF32826017
:10049000C36003610023036070470023036170475A
:1004A00043684B609A688A609A68516099600861F5
:1004B000036801330360704730B40D68B5F1FF3F46
:1004C00002D000F1080202E0026904E01A46536813
:1004D0001C68A542FAD253684B6099608A605160EB
:1004E000086103680133036030BC704703694268E8
:1004F000816891608268416851605A68904205D075
:1005000000220261186801381860704782685A60DA
:10051000F6E700000D4B1B68B3F1FF3F0AD04FF028
:10052000800372B683F31188BFF36F8FBFF34F8FD1
:1005300062B6FEE74FF0800372B683F31188BFF313
:100540006F8FBFF34F8F62B6FEE700BF0000402001
:1005500006480068006880F3088862B661B6BFF399
:100560004F8FBFF36F8F00DF00BF000008ED00E08A
:10057000DFF80C00016841F4700101607047000071
:1005800088ED00E04FF0807340F8043C40F8081C10
:10059000054B40F80C3C40F8202C6FF0020340F86B
:1005A000243C4438704700BF15054000064B1968CD
:1005B0000868B0E8F04F80F30988BFF36F8F4FF001
:1005C000000080F311887047E4C14020704700BFED
:1005D0004FF0800372B683F31188BFF36F8FBFF3C0
:1005E0004F8F62B60B4A136801331360012B0FD192
:1005F000094B1B6813F0FF0F0AD04FF0800372B64F
:1006000083F31188BFF36F8FBFF34F8F62B6FEE79E
:10061000704700BF0000402004ED00E00A4B1B685B
:1006200053B94FF0800372B683F31188BFF36F8F15
:10063000BFF34F8F62B6FEE7013B034A13600BB96D
:1006400083F31188704700BF00004020EFF309805A
:10065000BFF36F8F154B1A681EF0100F08BF20ED07
:10066000108A20E9F04F10604DF8043D4FF08000F3
:1006700072B680F31188BFF34F8FBFF36F8F62B6EE
:1006800001F0AAF84FF0000080F3118808BC196847
:100690000868B0E8F04F1EF0100F08BFB0EC108AE9
:1006A00080F30988BFF36F8F704700BFE4C140201B
:1006B000704700BF08B5EFF311834FF0800272B6A8
:1006C00082F31188BFF36F8FBFF34F8F62B6054B74
:1006D000984718B14FF08052034B1A60002383F300
:1006E000118808BD4514400004ED00E0034A044BA6
:1006F0001A600722043B1A60704700BFBF27090039
:1007000014E000E000B583B0254B1A78D2B2019214
:10071000FF221A701B78DBB28DF803309DF803308E
:1007200003F080031F4A137007221F4B1A609DF8C5
:10073000033013F0800F10D0062200E00A469DF827
:1007400003305B00DBB28DF803309DF80330511E9F
:1007500013F0800FF2D1144B1A60134A13681B0276
:1007600003F4E0631360019BDBB20D4A13700F4B7F
:100770001A6842F460021A601A6842F060421A6015
:100780000B4B984700220B4B1A600B4B98470B4AB8
:10079000136843F040431360094B9847094B98474F
:1007A00000E400E0D4094020D809402020ED00E01A
:1007B000ED064000000040207105400034EF00E0ED
:1007C0005105400015054000EFF305830F2B11D9AB
:1007D000124A9B5CDBB2124A12789A420AD94FF055
:1007E000800372B683F31188BFF36F8FBFF34F8F0F
:1007F00062B6FEE70B4B1B6803F4E0630A4A12681B
:1008000093420AD94FF0800372B683F31188BFF385
:100810006F8FBFF34F8F62B6FEE77047F0E300E0E3
:10082000D40940200CED00E0D809402038B504463A
:1008300010F0070F02D020F007040834114B98473E
:10084000114B1B6893B1114B1B681C44A34213D27C
:100850004BF2F77294420FD80B4A15681D440B4BAC
:100860001C600B4B98474DB1284638BD094B23F00F
:100870000703054A1360E6E7054B9847064B984780
:100880000025F1E729144000DC094020E0C14020A8
:1008900091154000E8094020AF2B400050B14FF0C7
:1008A000800372B683F31188BFF36F8FBFF34F8F4E
:1008B00062B6FEE77047000038B504461546026C84
:1008C0005AB90368002B2ED140681B4B9847002370
:1008D0006360A36B0133A36338BD6DB98068174BA8
:1008E0009847A368226C1344A360626893421CD3A8
:1008F0002368A3600020ECE7C068104B9847236C86
:100900005B42E2681A44E26021688A4202D262686D
:100910001344E360022D0AD1A36B53B1A36B013BD7
:10092000A3630020D5E70020D3E70020D1E7002013
:10093000CFE70020CDE700BFD91B40002D3E40008F
:1009400030B583B00190446D74B1A26BE36B9A42F1
:1009500015D34FF0800372B683F31188BFF36F8F06
:10096000BFF34F8F62B6FEE74FF0800372B683F39A
:100970001188BFF36F8FBFF34F8F62B6FEE7A26B94
:10098000934203D80025284603B030BD0A4601A98A
:1009900020460B4B98470546A36CB3F1FF3F0AD1A5
:1009A000636A002BEFD004F12400064B984700281F
:1009B00018BF0125E7E7A36C0133A364E3E700BF99
:1009C000B9084000AD194000026C72B110B5034681
:1009D000C4681444C4604068844201D31868D86075
:1009E0000846D968014B984710BD70472D3E40001E
:1009F000F8B50446224B9847A36C002B1BDD214D14
:100A0000214F224E0BE0636AABB104F12400B047E2
:100A100078B9A36C013BA364A36C002B0BDD636D61
:100A2000002BF0D000212046A8470128F1D1B8477B
:100A3000EFE7B847EDE74FF0FF33A364144B984757
:100A40000F4B9847636C002B14DD236993B104F1BD
:100A500010060E4D0C4F07E0636C013B6364636C42
:100A6000002B07DD23692BB13046A8470028F3D0BF
:100A7000B847F1E74FF0FF336364054B9847F8BD83
:100A8000D105400041094000091B4000AD1940005C
:100A90001D06400038B508B304460D461D4B984767
:100AA0002268216CE36B03FB01F3D0186060002027
:100AB000A063A2605B1A1344E3604FF0FF336364EA
:100AC000A364FDB923692BB104F11000124B9847C0
:100AD00001280ED0114B9847012038BD4FF08003FC
:100AE00072B683F31188BFF36F8FBFF34F8F62B677
:100AF000FEE74FF080520A4B1A60BFF34F8FBFF3EF
:100B00006F8FE7E704F11000064DA84704F12400B9
:100B1000A847DFE7D1054000AD1940001D064000A1
:100B200004ED00E085044000F8B550B94FF08003B3
:100B300072B683F31188BFF36F8FBFF34F8F62B626
:100B4000FEE7064617460D4689B101FB00F0593015
:100B5000124B98470446E8B94FF0800372B683F30E
:100B60001188BFF36F8FBFF34F8F62B6FEE7582037
:100B70000A4B984704460028EED02060E6632564BF
:100B800001212046064B984784F850700023636586
:100B90002046F8BD00F158030360EFE72D08400040
:100BA000950A40002DE9F04F85B00192B8B1044696
:100BB00001B3022B2CD01D468846664B984700286F
:100BC00034D1019B002B38D04FF0800372B683F3F1
:100BD0001188BFF36F8FBFF34F8F62B6FEE74FF000
:100BE000800372B683F31188BFF36F8FBFF34F8F0B
:100BF00062B6FEE7026C002ADBD04FF0800372B6CB
:100C000083F31188BFF36F8FBFF34F8F62B6FEE798
:100C1000E26B012ACFD04FF0800372B683F31188C4
:100C2000BFF36F8FBFF34F8F62B6FEE700274A4EC8
:100C3000DFF850A1DFF82C9142E00027F7E72A46C1
:100C400041462046454B9847636D9BB12946204657
:100C5000434B9847012807D14FF08052414B1A600F
:100C6000BFF34F8FBFF36F8F3F4B9847012005B005
:100C7000BDE8F08F636A73B104F124003B4B9847E1
:100C80000128F1D14FF08052364B1A60BFF34F8FDD
:100C9000BFF36F8FE8E70028E6D04FF08052314B6A
:100CA0001A60BFF34F8FBFF36F8FDDE72E4B98476E
:100CB0000020DCE720462E4B98472E4B9847012713
:100CC000B047A26BE36B9A42B9D3022DB7D0019B18
:100CD000002BEBD00FB902A8D047234B9847264BE7
:100CE0009847B047636CB3F1FF3F01D100236364C1
:100CF000A36CB3F1FF3F01D10023A3641A4B9847C3
:100D000001A902A81D4B9847E0B9B047D4F838B004
:100D1000E76B154B9847BB45CCD1019904F1100006
:100D2000174B98472046124B9847124B984700287C
:100D3000C5D14FF08053C9F80030BFF34F8FBFF3D8
:100D40006F8FBCE720460A4B98470A4B9847002014
:100D50008DE700BF151B4000D1054000B9084000D9
:100D60004109400004ED00E01D064000AD194000BF
:100D7000F10940009115400029144000751A400007
:100D8000A9184000451A4000002836D02DE9F0414E
:100D9000044600293CD0022B48D01E461546884602
:100DA000354B9847EFF311874FF0800372B683F30A
:100DB0001188BFF36F8FBFF34F8F62B6A26BE36BE7
:100DC0009A4201D3022E4FD13246414620462B4B48
:100DD0009847A36CB3F1FF3F41D1636D002B33D033
:100DE00031462046264B9847002D3FD001283DD163
:100DF000286087F31188BDE8F0814FF0800372B658
:100E000083F31188BFF36F8FBFF34F8F62B6FEE796
:100E1000006C0028BFD04FF0800372B683F31188B6
:100E2000BFF36F8FBFF34F8F62B6FEE7E06B012811
:100E3000B3D04FF0800372B683F31188BFF36F8F86
:100E4000BFF34F8F62B6FEE7636A8BB104F12400F3
:100E50000C4B984775B168B101202860C9E7A36CB5
:100E60000133A3640120C4E70020C2E70120C0E7EA
:100E70000120BEE70120BCE7C9074000B9084000D7
:100E800041094000AD1940002DE9F04784B00192BE
:100E900098B10446E1B198460F46614B984728BB8C
:100EA000019B53B34FF0800372B683F31188BFF3F5
:100EB0006F8FBFF34F8F62B6FEE74FF0800372B6BD
:100EC00083F31188BFF36F8FBFF34F8F62B6FEE7D6
:100ED000026C002ADFD04FF0800372B683F31188D2
:100EE000BFF36F8FBFF34F8F62B6FEE700264D4D05
:100EF000DFF860A1DFF83C914BE00026F7E7E568FA
:100F000039462046484B9847B8F1000F1DD1A36BD6
:100F1000013BA363236813B9444B9847606023697E
:100F20006BB104F11000424B9847012807D14FF0F4
:100F30008052404B1A60BFF34F8FBFF36F8F3E4B11
:100F40009847012004B0BDE8F087E560636A002B94
:100F5000F5D004F12400364B98470028EFD04FF02D
:100F60008052344B1A60BFF34F8FBFF36F8FE6E7A9
:100F7000314B98470020E5E7A84760682F4B98471A
:100F80002D4B984730E020462D4B98472D4B9847E6
:100F90000126A847A36B002BB1D1019B002BE7D002
:100FA0000EB902A8D047244B9847274B9847A8472B
:100FB000636CB3F1FF3F01D100236364A36CB3F111
:100FC000FF3F01D10023A3641B4B984701A902A84E
:100FD0001E4B9847E8B9A847A66B174B9847002EB9
:100FE000D1D12368002BC7D0019904F12400184BFC
:100FF00098472046124B9847124B98470028C7D174
:101000004FF08053C9F80030BFF34F8FBFF36F8F9D
:10101000BEE720460A4B98470A4B9847002091E7C5
:10102000151B4000D1054000C9094000951C400037
:10103000AD19400004ED00E01D064000351B4000E6
:10104000F10940009115400029144000751A400034
:10105000A9184000451A400010B40B4B1B6853B14F
:101060000123094C54F8332032B10133082BF9D154
:101070005DF8044B70470023034A42F8331002EB3B
:10108000C3035860F4E700BF5CC4402070B5044659
:101090000D4616460F4B9847636CB3F1FF3F0BD0DC
:1010A000A36CB3F1FF3F0AD00B4B9847A36B4BB136
:1010B00020460A4B984770BD00236364F0E7002385
:1010C000A364F1E73246294604F12400044B984713
:1010D000EEE700BFD10540001D064000F1094000C9
:1010E0002D194000084B1B681B683BB1064B1B6861
:1010F000DB68DB685A68054B1A6070474FF0FF32B7
:10110000024B1A60704700BFE8C1402094C24020E3
:1011100010B50F4B1B6858600E4B1B6898420ED3DE
:1011200004460D4B18680A4B196804310B4B98475D
:101130000B4B1B689C4201D2094B1C6010BD094B34
:101140001868034B19680431044B984710BD00BF61
:10115000E4C14020DCC24020E8C14020B904400086
:1011600094C24020ECC140202DE9F04F83B00C9D8B
:10117000DDF834A00E9E60B1042D15D94FF0800328
:1011800072B683F31188BFF36F8FBFF34F8F62B6D0
:10119000FEE74FF0800372B683F31188BFF36F8FC1
:1011A000BFF34F8F62B6FEE70190984691460F4617
:1011B00036B99000624B98470646002800F09E80A2
:1011C00058205F4B98470446002800F0948006633F
:1011D0004FEA8902A52130465A4B98476FF04046A6
:1011E0004E44236B03EB860323F007063B7884F819
:1011F00034303B78002B40F08480002784F83D7029
:10120000E562A564E76404F104094846DFF884B1A7
:10121000D84704F11800D8472461C5F10503A3613C
:101220006462276584F85470424601993046464B03
:1012300098472060BAF1000F01D0CAF80040434B34
:101240009847434A136801331360424B1B68002BD5
:1012500066D1404B1C601368012B21D13E4F3846AC
:101260003E4EB04707F11400B04707F12800B047E1
:1012700007F13C00B04707F15000B047DFF8188194
:101280004046B047364F3846B0473648B0473648F4
:10129000B0473648B047364BC3F80080354B1F6027
:1012A000354A1368013313602364E06A334A1168D6
:1012B000012383400B43136000EB80004946264B1B
:1012C00003EB80002E4B98472E4B98472E4B1B6804
:1012D000002B31D01F4B1B68DB6A9D422ED94FF08B
:1012E00080522A4B1A60BFF34F8FBFF36F8F0120DC
:1012F00003B0BDE8F08F3046254B98474FF0FF30E4
:10130000F6E73B4604F134020937597802F8011F29
:1013100013F8011F00293FF470AFBB42F5D16CE711
:10132000194B1B68002BBBD10A4B1B68DB6A9D4223
:10133000B6D3084B1C60B3E70120D9E70120D7E7FB
:101340002D084000613F400085054000D105400068
:1013500054C24020E4C14020F0C140208504400038
:1013600080C240209CC24020C8C24020B4C240205D
:10137000E8C14020ECC1402060C2402068C240204B
:10138000A10440001D064000B0C2402004ED00E072
:101390009D0840009B0440006CC2402010B584B002
:1013A0000023039302930193009382221649174866
:1013B000174CA04701280BD020BB4FF0800372B61A
:1013C00083F31188BFF36F8FBFF34F8F62B6FEE7D1
:1013D000104B98470128EFD14FF0800372B683F38A
:1013E0001188BFF36F8FBFF34F8F62B64FF0FF329C
:1013F000094B1A600122094B1A600022084B1A603F
:10140000084B984704B010BD1099400041174000A8
:1014100069114000811D400094C24020B0C24020AC
:10142000DCC2402005074000024A13680133136004
:10143000704700BF5CC24020014B1868704700BF76
:10144000DCC240202DE9F047424B1B68002B78D1CD
:10145000414B1A6801321A601E68D6B93F4B1B68AF
:101460001B6853B14FF0800372B683F31188BFF34A
:101470006F8FBFF34F8F62B6FEE7384A1168384B63
:10148000186810601960374A136801331360364BCF
:101490009847364B1B689E4218D20024344B1B6879
:1014A000DB6A03EB8303334A52F82330022B28BF55
:1014B0000124314B1B680BB9304B9847304B1B68EC
:1014C000002B0CBF20460120BDE8F0870024DFF888
:1014D0008C90DFF8B8802B4F1FE04FF0FF32234B8A
:1014E0001A60DBE7214A1360D8E705F11800C0470E
:1014F000E86A3A680123834013433B6000EB8000B5
:1015000051461C4B03EB80001F4B9847184B1B6840
:10151000EA6ADB6A9A4228BF0124D9F800301B68C6
:10152000002BDAD0D9F80030DB68DD686B689E42AA
:10153000D8D305F1040A5046C047AB6A002BD4D17A
:10154000D6E70D4A1368013313600C4B984700240B
:10155000B4E700BF5CC24020DCC24020E8C14020AC
:10156000ECC1402098C24020E510400094C24020C9
:10157000E4C14020F0C1402058C24020AD2B4000C3
:10158000E0C2402068C24020A1044000ED044000B9
:101590002DE9F843384B1B6853B94FF0800372B6FE
:1015A00083F31188BFF36F8FBFF34F8F62B6FEE7EF
:1015B000324B9847304B1A68013A1A601B68002B6F
:1015C00055D12F4B1B68002B32D100242D4B98474F
:1015D0002046BDE8F883FB68DC6804F11800B047DA
:1015E00004F104084046B047E06A2A6801238340BA
:1015F00013432B6000EB8000414609EB8000224B37
:101600009847224B1B68E26ADB6A9A420CD23B681D
:10161000002BE0D11E4B1B68DBB11D4B1B68C3B117
:101620001C4E1D4D1A4C0EE001221B4B1A60EEE7BA
:101630001A4F1B4E1B4DDFF87490E8E72368013BFF
:10164000236023682BB1B0470028F7D001232B601B
:10165000F4E7114B1B68012B0BD14FF08052124B5A
:101660001A60BFF34F8FBFF36F8F0124AEE70024E2
:10167000ACE70024AAE700BF5CC24020D1054000CF
:1016800054C240201D064000A1044000E4C1402097
:1016900058C2402045144000E0C240209CC2402077
:1016A000ED04400068C2402004ED00E0F0C140209D
:1016B00010B5002829D00446184B1B6853B14FF0D1
:1016C000800372B683F31188BFF36F8FBFF34F8F20
:1016D00062B6FEE7124B9847124B1B681C44124B34
:1016E00018680430114B984748B90F4B1A681049D5
:1016F0000B68D06A0122824023EA02030B60204675
:101700000C4B98470C4B984738B94FF080520B4B15
:101710001A60BFF34F8FBFF36F8F10BD5CC24020C4
:1017200029144000DCC24020E4C14020ED04400008
:1017300068C24020111140009115400004ED00E006
:1017400080B5DFF88880194EDFF884902AE0184BC6
:101750001B68012B1ED82B68002BF8D0C0473468BB
:10176000B847002CF7D0134B9847F368DC68201D6E
:10177000114B9847114A1368013B13602B68013BDA
:101780002B600F4B9847206BDFF848A0D0472046CE
:10179000D047E0E74FF08053C9F80030BFF34F8FD8
:1017A000BFF36F8F074D084FD5E700BFC8C2402079
:1017B000F0C14020D1054000ED04400054C240205B
:1017C0001D06400064C240209115400029144000CD
:1017D00004ED00E09D0840002D4B1B68002B2CD130
:1017E00010B500222B4B1A602B4B1B681B6B1A6821
:1017F000B2F1A53F03D15A68B2F1A53F21D0264BE3
:10180000186819683431254B9847254B1B68B3FA83
:1018100083F3DBB2C3F11F0303EB8301214A52F8C8
:101820002120BAB94FF0800372B683F31188BFF359
:101830006F8FBFF34F8F62B6FEE70122154B1A6020
:1018400070479A68B2F1A53FD9D1DB68B3F1A53FE3
:10185000D5D1DAE7134A9900C81802EB8000446832
:1018600064684460194402460832944209D003EB8C
:1018700083030C4A02EB83035B68DA68064B1A6049
:1018800010BD6068074A02EB81025060EFE700BFBD
:101890005CC24020E0C24020E4C14020952B4000C3
:1018A00068C24020F0C1402038B5E0B10C46174D69
:1018B00029681831164B984728680430154B98470B
:1018C00040B92A6814490B68D06A0122824023EA91
:1018D00002030B60B4F1FF3F10D0104B1868204496
:1018E0000F4B984738BD4FF0800372B683F31188D1
:1018F000BFF36F8FBFF34F8F62B6FEE7034B1968DC
:1019000004310848084B984738BD00BFE4C1402067
:10191000B9044000ED04400068C24020DCC2402011
:1019200011114000B4C24020A1044000E8B170B5DC
:1019300015460C46164E31681831164B98473068DC
:101940000430154B984740B9326814490B68D06A87
:101950000122824023EA02030B60012D10D0104BBC
:10196000186820440F4B984770BD4FF0800372B643
:1019700083F31188BFF36F8FBFF34F8F62B6FEE71B
:10198000034B196804310848024B984770BD00BFEB
:10199000E4C14020A1044000ED04400068C24020A2
:1019A000DCC2402011114000B4C2402038B5C368E9
:1019B000DC6824B304F1180528461A4B98471A4BE3
:1019C0001B683BBB251D2846164B9847E06A174A03
:1019D0001168012383400B43136000EB800029460C
:1019E000134B03EB8000134B9847134B1B68E26AC1
:1019F000DB6A9A4213D90120104B186038BD4FF0B2
:101A0000800372B683F31188BFF36F8FBFF34F8FDC
:101A100062B6FEE729460A48064B9847E5E70020EC
:101A200038BD00BFED0440005CC2402068C24020C9
:101A3000F0C14020A1044000E4C14020E0C24020A9
:101A40009CC2402030B1094A12680260084A1268FC
:101A5000426070474FF0800372B683F31188BFF382
:101A60006F8FBFF34F8F62B6FEE700BF98C2402072
:101A7000DCC2402038B5C0B1044609B30D461D4B49
:101A800098471D4B1A682B68B3F1FF3F2ED01B49B6
:101A900009682068884202D061688A4228D2616859
:101AA000501A834217D801241CE04FF0800372B60D
:101AB00083F31188BFF36F8FBFF34F8F62B6FEE7DA
:101AC0004FF0800372B683F31188BFF36F8FBFF3BB
:101AD0004F8F62B6FEE79B1A0B442B602046084BE3
:101AE00098470024074B9847204638BD0024F9E763
:101AF0000124F7E7D1054000DCC2402098C2402015
:101B0000451A40001D0640000122014B1A60704733
:101B1000E0C24020054B1B6833B1054B1B68002B0E
:101B20000CBF02200020704701207047B0C2402047
:101B30005CC24020002844D038B50446C26A21491E
:101B40000968C96A8A4214D28169002905DB1D49E6
:101B50000968C96AC1F10501816102EB82021A4973
:101B600001EB82026169914204D0164A1268D26A7E
:101B7000E26238BD251D2846144B984770B9E36AC8
:101B800003EB8301104A52F821203AB91048026849
:101B9000012101FA03F322EA03030360094B1B68E6
:101BA000D86AE0620A4A1168012383400B4313603C
:101BB00000EB80002946044B03EB8000054B98475F
:101BC00038BD7047E4C14020F0C14020ED04400022
:101BD00068C24020A104400000284DD038B504461A
:101BE000274A126890420AD04FF0800372B683F3FE
:101BF0001188BFF36F8FBFF34F8F62B6FEE7C26CE1
:101C000052B94FF0800372B683F31188BFF36F8F20
:101C1000BFF34F8F62B6FEE7013AC264C06AA16C9F
:101C200088422BD052BB251D2846164B984768B9D1
:101C3000E16A01EB8102144B53F8223033B91348A7
:101C4000036801228A4023EA02030360A06CE06279
:101C5000C0F10503A3610D4A1168012404FA00F3E1
:101C60000B43136000EB80002946074B03EB800019
:101C7000074B9847204638BD00207047002038BDEC
:101C8000E4C14020ED044000F0C1402068C2402083
:101C9000A1044000054B1B6823B1044B1A68D36CA8
:101CA0000133D364014B1868704700BFE4C1402082
:101CB00008B54160006191420CD8D21A83699A42FA
:101CC00001D3012008BD011D094B1868094B984735
:101CD000002008BD9A4203D2994201D3012008BDD9
:101CE000011D054B1868034B9847002008BD00BF35
:101CF000E8C24020B9044000E4C2402070B5154B52
:101D00009847154B1B6813B1144B984770BD144D81
:101D10002846144EB047144C2046B047134B1D6064
:101D2000134B1C60002210210520124B98470A4BD0
:101D3000186018B11049114B9847E5E74FF0800340
:101D400072B683F31188BFF36F8FBFF34F8F62B604
:101D5000FEE700BFD105400018C340201D0640002B
:101D6000ECC240208504400000C34020E4C2402073
:101D7000E8C24020290B400018994000591040004B
:101D800010B584B00F4B98470F4B1B6873B10023FD
:101D9000039302930193042200924FF482720B4941
:101DA0000B480C4CA04708B104B010BD4FF08003A5
:101DB00072B683F31188BFF36F8FBFF34F8F62B694
:101DC000FEE700BFFD1C400018C3402020994000E2
:101DD000011F400069114000D8B130B585B01546EB
:101DE0000446154A106820B31A46009101950294E2
:101DF000052919DC114B984702284FF000030CBF4E
:101E0000089A1A4669460C4800680D4CA04705B070
:101E100030BD4FF0800372B683F31188BFF36F8F2C
:101E2000BFF34F8F62B6FEE700236946054CA0471B
:101E3000EDE70020EBE700BF18C34020151B400072
:101E4000A50B4000890D40002DE9F04782B0804687
:101E5000244B98470746244B1B6898421BD300230A
:101E6000C8F80030204B1F60384602B0BDE8F0874C
:101E7000002100910B46524620461C4CA04760B9F9
:101E80004FF0800372B683F31188BFF36F8FBFF3F7
:101E90004F8F62B6FEE7164D164E2B681A68C2B118
:101EA000DB68D3F800A0DC6804F104094846B047B9
:101EB000636A20469847E369012BEED1A369534436
:101EC0009A45D5D263602461494628680A4B9847F1
:101ED000E3E70A4A10680649086013600123C8F85E
:101EE0000030BFE73914400014C34020D91D400022
:101EF000E4C24020ED044000B9044000E8C24020A4
:101F00002DE9F04788B0754E754FDFF8FC91DFF88A
:101F1000FC8133681A68002A00F0CE80DB681C68F8
:101F2000B84704A86F4B98470546049B002B44D143
:101F3000A04212D20022611B6B4B18686B4B984772
:101F40006B4B984700283AD14FF08053C9F80030C6
:101F5000BFF34F8FBFF36F8F31E0654B9847336806
:101F6000DB68D3F80CA00AF10400C047DAF81C3093
:101F7000012B04D0DAF82430504698471FE0DAF8F5
:101F8000181023462A46214450465A4DA847012896
:101F9000F0D1002100910B4622465046564CA047F6
:101FA0000028E7D14FF0800372B683F31188BFF3A6
:101FB0006F8FBFF34F8F62B6FEE74D4B98474A4D88
:101FC0004E4C06E007990698059B9847049B002B0A
:101FD00009DA00231A4604A92868A047002898D0E7
:101FE000049B002BEEDBDDF818A0DAF8143013B1F7
:101FF0000AF10400C04703A83A4B9847049B092BF9
:10200000E7D801A252F823F03120400031204000EF
:1020100031204000D31F400085204000B120400007
:102020003120400031204000D31F40008520400077
:10203000059CDAF8181023460246214450462D4CE0
:10204000A0470128BCD1DAF8243050469847DAF886
:102050001C30012BB4D1DAF81820002100910B4676
:10206000059802445046244CA0470028A8D14FF0C0
:10207000800372B683F31188BFF36F8FBFF34F8F66
:1020800062B6FEE70599CAF8181031B10346024658
:1020900001445046174CA04792E74FF0800372B6B8
:1020A00083F31188BFF36F8FBFF34F8F62B6FEE7E4
:1020B0005046134B984783E7B84704A8094B984705
:1020C0000546049B002B7FF478AF0E4B1B681A6803
:1020D000B2FA82F2520900242DE700BFE4C2402088
:1020E00029144000491E400018C340208D104000B4
:1020F00091154000B11C4000D91D4000890E4000E0
:102100009D084000E8C2402004ED00E0ED044000DE
:1021100010B51048104B98473E2100200F4B9847B0
:102120000F4CA0470028FCD00E4B98470E4A0F4B8F
:102130009A620F4CA0470028FCD002200D4B984714
:1021400000200D4B98470D4B98470248024B98478B
:1021500010BD00BF00A3E1118D2A400015264000EC
:102160006926400079264000013F182000060E40F5
:102170008926400079254000B12540008129400092
:102180002DE9F04180B90C469046002A0FDD8F18EA
:10219000084E094D306821462B6898470134BC42EF
:1021A000F8D14046BDE8F0814FF0FF38F9E78046AE
:1021B000F7E700BFA4C440209CC440200138022897
:1021C00015D82DE9F0410E4614469AB10D46DFF8B8
:1021D00038800C4FD8F8000015F8011B3B68984771
:1021E00000280ADBA81B013CF4D1BDE8F0814FF0C8
:1021F000FF3070471046BDE8F0814FF0FF30BDE87A
:10220000F08100BFA0C44020A4C44020F8B54FF422
:1022100000425C4B5A60BFF34F8FBFF36F8F5A4B36
:102220000022C3F850225A6942F400325A61BFF3C7
:102230004F8FBFF36F8FD3F88070C7F34E3607F020
:1022400007000430C7F3C907B7FA87FE0EF01F0E68
:10225000BFF34F8F4FF0FF3404FA00FC06FA00F092
:1022600004FA0EF407FA0EFE1D463A46734640EA9B
:102270000301C5F86012013A2344B2F1FF3FF6D1E1
:10228000013E6044B6F1FF3FEFD1BFF34F8F3E4BAD
:102290005A6942F480325A61BFF34F8FBFF36F8F98
:1022A0003A4A3B495160A1F580715160BFF34F8FAD
:1022B000BFF36F8FD3F8902222F00102C3F890226F
:1022C000D3F8942222F00102C3F89422BFF34F8F77
:1022D000BFF36F8F0A202F4CA0470B20A0470C2084
:1022E000A0471020A0471120A0472B4B4FF480722D
:1022F0001A61C3F8A0201A63A3F580634FF400624B
:102300005A61C3F8A0205A66C3F890205A651A6231
:10231000C3F88420196F21F400611967596F21F403
:1023200000615967C3F8C020C3F8D420C3F8B020B7
:102330004FF400121A66C3F890205A655A62C3F827
:102340008020196F21F400111967596F21F40011D1
:1023500059675A60114AD2F8143143F01003C2F899
:1023600014310F4B10221A66C3F890205A655A6236
:10237000C3F88020196F11431967596F11435967CA
:102380005A60F8BD50180E4000ED00E0000C0E4001
:102390000C08005A9926400000120E4000800840A8
:1023A00000100E400AB9016670474166704701632C
:1023B000704741637047416412F0010F0DD101660F
:1023C00012F00A0F0BD0016212F0020F09D112F0C5
:1023D000080F08D0C0F8841005E04166F0E74162BC
:1023E000F2E7C0F8801041610160704710B4019CB1
:1023F00041644CB901664BB101654AB94163016161
:1024000001605DF8044B70474166F4E74165F4E70D
:102410000163F4E712F0100F12D0C0F8B01012F000
:10242000200F07D0C0F8D41012F0400F05D0C0F82C
:10243000C0107047C0F8D010F6E7C0F8C41070475D
:10244000C0F8B410704701647047C06C7047806C6E
:10245000704700002DE9F041044688460E4B98472E
:10246000054620460D4B9847054013D00C4C04F10F
:10247000600603E0B4420DD010345DB120684045E1
:10248000F8D161682942F5D0E3689847636825EA86
:102490000305EFE7BDE8F0814B2440004F244000E6
:1024A0001CC34020F8B5184C2668062E2AD84FF0D9
:1024B000000C6446154F04E00134E4B2A446A64281
:1024C00009D3A64625017D598D42F5D107EB0415A8
:1024D0006D689542F0D10D4D4FEA0E1E05EB0E04CE
:1024E00045F80E106260A3600699E160013666450A
:1024F00005D011461A46064B98470020F8BD024900
:102500000E60F6E70120F8BD8CC340201CC34020BC
:102510001524400008B50A210148024B984708BD20
:10252000000E0E405524400008B50B210148024B17
:10253000984708BD00100E405524400008B50C21F6
:102540000148024B984708BD00120E405524400038
:1025500008B510210148024B984708BD00140E40F1
:102560005524400008B511210148024B984708BD89
:1025700000160E4055244000032811D0042812D024
:1025800002280CBF4FF480710021084A136B23F41A
:1025900040730B431363936E13F0080FFBD0704727
:1025A0004FF44071F1E74FF40071EEE700060E4082
:1025B000174A136B23F0700318431063936E13F0E4
:1025C000080F0AD14FF4805311498A6E12F0080F98
:1025D00003D1013BF9D1012070470D4A136B23F061
:1025E000030343F002031363936E13F0080F0AD141
:1025F0004FF4805306498A6E12F0080F05D1013B53
:10260000F9D101207047002070470020704700BFBB
:1026100000060E40A0B90E48036A090289B20D4AAD
:102620001A400D4B1343194301620246936E13F097
:10263000010FFBD0064A116A084B0B431362704727
:1026400003490B6A064A1A40064B13430B62704754
:1026500000060E40FCFFC8FF0100370000003701F4
:10266000FCFFC8FE02003701024B986E00F4803078
:10267000704700BF00060E404FF00052014B9A62B7
:10268000704700BF00060E40024B986E00F002003B
:10269000704700BF00060E403F281ED81F280CD8E8
:1026A000114B9A6901238340934318D0012303FA05
:1026B00000F00D4B18610020704720380A4BD3F80A
:1026C00008210123834093430BD0012303FA00F038
:1026D000054BC3F80001002070470120704700201F
:1026E00070470020704700BF00060E4010B48901FB
:1026F0004318022444504FF0FF319962196A5A601E
:102700005DF8044B7047890105234350704700EB87
:102710008111CA61704700EB81114A62704700EB7A
:102720008111086A7047F0B486B00224019408242D
:10273000029420240394802404940A9CE40B0594BE
:10274000B0EB510F14D84C0CA04217D2012501AFA9
:1027500057F82540B1FBF4F4260C84420AD3864294
:102760000DD90135052DF3D1002006B0F0BC70471E
:102770000020FAE70020F8E70120F6E700252AB15B
:1027800006A901EB850151F8141C1160002BF3D050
:102790001D600120E9E710B40B01934214D9C90070
:1027A0004B0803EBC202B2FBF1F2D3085C1E4FF6FA
:1027B000FE718C4201D9012017E0416841F40021EB
:1027C00041600CE0012010E0590801EBC202B2FBAD
:1027D000F3F2D3085C1E4FF6FE718C42F2D812045D
:1027E00002F4E0221A43026200205DF8044B7047B5
:1027F000084BC0F8E43000234360436283628823BF
:102800000360242303604FF4807303604FF40023BC
:10281000036070470041535570B505460C46164697
:102820000F4B984700220F4B1A60A4B13246216823
:1028300028460D4B9847024678B96368A1680B4358
:1028400021690B43E1680B4306490B6069680B4340
:102850006B60104670BD0122FBE70122F9E700BF63
:10286000F127400090C34020972740004023036099
:1028700070471023036070474069C0F34000704701
:10288000406900F001007047436913F0020F04D063
:10289000C1F30801C16100207047012070474369FE
:1028A00013F0010F05D08369C3F308030B60002008
:1028B000704701207047FEE700B583B0254B264ADC
:1028C0009A4210D0254B234A9A420CD2013B9B1AC4
:1028D00023F00303043313441F4951F8040B42F857
:1028E000040B9A42F9D11E4B1E4A9A420AD2013B6E
:1028F0009B1A23F0030304331344002142F8041B02
:102900009342FBD1184A194B23F07F039360EFF3F6
:102910001083B3FA83F35B09019372B6BFF35F8F41
:102920000022134B1A700199124A136843F4700382
:102930001360BFF34F8FBFF36F8F29B101220C4B90
:102940001A70BFF35F8F62B60B4B98470B4B9847DB
:10295000FEE700BF00004020D49C4000B8094020A2
:10296000D0C44020B809402000ED00E00000400045
:102970000400402088ED00E0B53D400035344000C3
:102980003B4B1B6B03F00303012B1DD083B1022BC8
:1029900036D0374B1B6B03F07003702B5FD0344B7A
:1029A0001A6B3449C2F302120B68D3400B607047B4
:1029B000314B5B6913F0800F14BF4FF400424FF4AA
:1029C000FA422C4B1A60E4E7294B1B6A13F0807F14
:1029D00003D02A4A274B1A60DBE7294A254B1A60A5
:1029E000234B1B6A03F07003102B05D0202BD0D192
:1029F000224A204B1A60CCE7224A1E4B1A60C8E7D5
:102A00001B4B1B6A13F0807F16D01C4A194B1A60AF
:102A1000174B1B6B03F00303022BBAD1144A916AC4
:102A2000926A1448C1F30A41036801FB0333D2B22E
:102A3000B3FBF2F30360ACE7114A0E4B1A600C4B88
:102A40001B6A03F07003102B05D0202BE0D10B4A3A
:102A5000084B1A60DCE70B4A064B1A60D8E7054AB8
:102A600013680949A1FB03135B081360704700BF9B
:102A700000060E400800402010180E40001BB70052
:102A800000093D0000127A00ABAAAAAA124B984294
:102A900011D9124B984213D9114B984214D9114BAA
:102AA000984215D9104B984294BF4FF004220F4A18
:102AB0000F4B1A6070474FF080620D4B1A607047E1
:102AC0000C4A0B4B1A6070470B4A094B1A6070474F
:102AD0000A4A074B1A607047FF2C3101FF59620206
:102AE000FF869303FFB3C404FFE0F505000500046F
:102AF000000C0E400001000400020004000300046A
:102B00000A4B1B6853B1094B1B681A1808499142BC
:102B100008DB1046054A106018467047054A034B0B
:102B20001A60F0E74FF0FF30704700BF94C34020B9
:102B3000FCFF4520D0E640204FF0FF3070474FF4B7
:102B400000534B6000207047012070470020704701
:102B50000122014B1A70704798C340200122014B9B
:102B60001A70704799C340200122014B1A707047B8
:102B70009AC34020044B08225A669A6E034B1A608F
:102B80000122034B1A70704700C003409CC34020D1
:102B90009BC3402008B50A4601460248024B9847AD
:102BA000FEE700BFE8994000053E400070474FF047
:102BB000800372B683F31188BFF36F8FBFF34F8F1B
:102BC00062B6FEE72DE9F04180460F461646134DEA
:102BD000134C2846A0470028FBD041460F48114B14
:102BE00098470E4D0E4C2846A0470028FBD039468A
:102BF0000A480C4B9847094D094C2846A047002825
:102C0000FBD031460548074B98470023064A13700E
:102C1000064A1370064A1370BDE8F0810080024036
:102C2000792840008928400098C3402099C340205B
:102C30009AC340202DE9F04383B00C204E4CA047AE
:102C40001020A0470A20A0471020A0470A20A04734
:102C50004A4F00240094234622464FF40011384680
:102C6000474DA847474E009423462246012130464F
:102C7000A8470094234622464FF080513846A84783
:102C800000942346224608213046A8473E4D22465E
:102C90004FF4003128463D4FB84722464FF080415F
:102CA0002846B847224610213046B84701224FF443
:102CB00000312846364CA04701224FF0804128467B
:102CC000A047012210213046A047324B00937023C9
:102CD0004FF400320C2128462F4CA0472F4B009375
:102CE00070234FF080420C212846A0472C4B0093C4
:102CF000702310220A213046A0474FF400312846A5
:102D0000DFF8B880C047274C4FF48059C4F80090D2
:102D1000802784F80C734FF080412846C047C4F8E0
:102D2000009084F80C7310213046C0474FF4806344
:102D3000236084F80A731C4C1C4D1D4E07E058227A
:102D40004C2131201B4B984764201B4B984723781C
:102D5000002BF4D12B7843B93378002BF4D05822D0
:102D60004A213120134B9847EEE758224D2131205C
:102D7000104B9847E8E700BF9926400000140E402A
:102D8000ED234000000E0E4000120E40B72340001D
:102D9000A5234000512B4000A52440005D2B40009E
:102DA000692B400000E100E098C3402099C3402017
:102DB0009AC34020C52B4000B11640004724400074
:102DC00070B582B00E46024622496846224B9847AB
:102DD000224D234C2846A0470028FBD041211F4804
:102DE000204B98471D4D1E4C2846A0470028FBD07D
:102DF0009DF8001019481B4B9847184D184C284651
:102E0000A0470028FBD09DF801101448154B9847A7
:102E1000124D134C2846A0470028FBD09DF8021005
:102E20000E48104B98470D4D0D4C2846A0470028E2
:102E3000FBD09DF8031009480A4B9847074D084CF2
:102E40002846A0470028FBD031460448054B984748
:102E500002B070BDE0994000FD3F4000008002409C
:102E600079284000892840002DE9F04383B080464E
:102E70000F4C104F104E2046B8470028FBD0C146DB
:102E800002AD002345F8043D29462046B0470028FE
:102E9000FAD19DF8043089F8003008F10108582B68
:102EA000E9D1002389F8003003B0BDE8F08300BF0A
:102EB00000800240812840009F2840002DE9F04119
:102EC0008AB00A20B84CA0470C20A0470A20A0478F
:102ED0000A20A0470A20A0471020A0471020A047A2
:102EE0000A20A047B14D00240094234622464FF407
:102EF00000512846AE4EB047DFF8CC8200942346FE
:102F000022464FF400214046B04700942346224613
:102F100010212846B047009423462246082128461F
:102F2000B04700942346224640212846B047A14F8F
:102F30000094234622464FF000713846B047009473
:102F4000234622464FF080713846B047009423460E
:102F500022464FF080712846B0474FF080513846E6
:102F6000954CA04701212846944EB0470821284699
:102F7000A0474FF400113846B0474FF4005128469F
:102F8000A0474FF400214046A04710212846A04703
:102F900008212846A04740212846A0474FF000714D
:102FA0003846A0474FF080713846A0474FF08071F7
:102FB0002846A0473E461CE04FF4001130467E4FA5
:102FC000B8474FF0805130467C4B98470121284646
:102FD000B84708212846B847012C46D0022C63D0B8
:102FE000032C00F08180042C00F09E80042C00F360
:102FF000BB8002A8724B98470DF10900714B9847AE
:1030000004469DF808304C2BD6D04E2BF1D14FF40E
:1030100000512846694CA0474FF400214046A04784
:1030200010212846A04708212846A04740212846CD
:10303000A0474FF000713046A0474FF080713046F6
:10304000A0474FF080712846A0474FF4001130464A
:10305000594FB8474FF080513046B84701212846B4
:10306000B84708212846A047C3E74FF40051284637
:10307000B8474FF400214046504CA0471021284645
:10308000A04708212846A04740212846A0474FF0E6
:1030900000713046A0474FF080713046A0474FF096
:1030A00080712846A047A4E74FF400512846424CBF
:1030B000A0474FF400214046A047102128463F4C2E
:1030C000A04708212846A04740212846A0474FF0A6
:1030D00000713046A0474FF080713046A0474FF056
:1030E00080712846A04784E74FF400512846324FAC
:1030F000B8474FF400214046B847102128462F4CCE
:10310000A04708212846A04740212846A0474FF065
:1031100000713046A0474FF080713046B8474FF0FD
:1031200080712846A04764E74FF400512846224C9E
:10313000A0474FF400214046A04710212846A04751
:10314000082128461D4FB84740212846B8474FF070
:1031500000713046A0474FF080713046A0474FF0D5
:1031600080712846B84744E74FF400512846124C76
:10317000A0474FF400214046A04710212846A04711
:1031800008212846A04740212846A0474FF000715B
:103190003046A0474FF080713046A0474FF0807115
:1031A0002846A04725E700BF99264000000E0E40A4
:1031B000ED23400000140E40AF234000B323400035
:1031C000692E4000AD3D400000120E4070B586B043
:1031D0004FF4E1330093C02301934FF40063029353
:1031E0000023039304930E20094B9847094C0A4A85
:1031F00069462046094B98472046094EB04720466D
:10320000084DA8472046B0472046A84706B070BDE5
:10321000992640000080024080D1F0081928400023
:103220006D284000732840002DE9F04385B0064624
:103230000C46174698460846184B9847184D009577
:1032400002AB03AA29464046DFF86C90C847029AB1
:1032500042F4804239463046124B9847039AB5FBF8
:10326000F2F2B2FBF8F2394630460F4B984763B2A0
:103270005B0904F01F04012202FA04F40B4A42F82D
:103280002340102239463046094B9847394630468C
:10329000084B984705B0BDE8F08300BF9926400071
:1032A00000A3E111ED2640000F27400000E100E0FF
:1032B0001727400007274000272740000000000094
:1032C0002DE9704789B03C4C20463C4B984702A8FA
:1032D0003B4B984702A920463A4B9847636823F036
:1032E0008F0363600123384A08212046374DA847E1
:1032F00001A8374B984700238DF8053001AA082113
:103300002046344B9847082363664FF40073E36606
:103310004FF4807363610223236004230122182188
:103320002D482E4CA047DFF8D8A01FA5D5E90045B1
:1033300009E02B4B186858212A4B9847284B1E68E8
:103340006420294B98479AF80030DBB2012BF7D163
:1033500000238AF800303046244B9847804689463F
:103360001F4B1868224B984722462B46214EB047E8
:1033700002460B46404649461F4EB0470028D8D16A
:10338000174B18681A4B984709A3D3E90023194E25
:10339000B04702460B4640464946184EB047002803
:1033A000CCD0C6E7AFF30080666666666666EE3F21
:1033B000CDCCCCCCCCCCF03F00C0034021044000AD
:1033C00065024000A1024000752B4000A1034000AF
:1033D000950240003502400000C000402932400004
:1033E0009CC34020C12D4000B1164000AD374000C5
:1033F0008D374000793840005D3D4000993D4000E8
:103400009BC3402000B583B001210748074B984774
:103410000190019B064B4FF480725A6102221A60A0
:1034200003B05DF804FB00BF00C000401F27400050
:1034300000C0034000B585B0214B9847214B984709
:10344000214B224A5A60E021214A82F823100024AD
:103450009C6007221A601F4B9847039402940194C2
:10346000009423464FF480621B491C481C4CA04723
:10347000012802D01B481C4B98470023039302935A
:10348000019300934FF4007218491948144CA04757
:10349000012802D01748144B984700230393029346
:1034A000019300934FF40072134914480C4CA04749
:1034B000012802D012480C4B9847124B9847FEE760
:1034C0000D2240001121400010E000E0DF930400D5
:1034D00000ED00E0CD31400028994000BD2E4000B5
:1034E0006911400038994000053E40006499400051
:1034F000C132400078994000A8994000352C400026
:10350000B49940009D13400081F0004102E000BFEB
:1035100083F0004330B54FEA41044FEA430594EA93
:10352000050F08BF90EA020F1FBF54EA000C55EACE
:10353000020C7FEA645C7FEA655C00F0E2804FEA9F
:103540005454D4EB5555B8BF6D420CDD2C4480EA81
:10355000020281EA030382EA000083EA010180EAB1
:10356000020281EA0303362D88BF30BD11F0004FFF
:103570004FEA01314FF4801C4CEA113102D0404235
:1035800061EB410113F0004F4FEA03334CEA133370
:1035900002D0524263EB430394EA050F00F0A78088
:1035A000A4F10104D5F1200E0DDB02FA0EFC22FA83
:1035B00005F2801841F1000103FA0EF2801843FA77
:1035C00005F359410EE0A5F120050EF1200E012A68
:1035D00003FA0EFC28BF4CF0020C43FA05F3C018A6
:1035E00051EBE37101F0004507D54FF0000EDCF11F
:1035F000000C7EEB00006EEB0101B1F5801F1BD3C8
:10360000B1F5001F0CD349085FEA30004FEA3C0CCB
:1036100004F101044FEA445212F5800F80F09A80C1
:10362000BCF1004F08BF5FEA500C50F1000041EBC5
:10363000045141EA050130BD5FEA4C0C404141EBC9
:10364000010111F4801FA4F10104E9D191F0000FF0
:1036500004BF01460020B1FA81F308BF2033A3F173
:103660000B03B3F120020CDA0C3208DD02F1140C6A
:10367000C2F10C0201FA0CF021FA02F10CE002F1A5
:103680001402D8BFC2F1200C01FA02F120FA0CFC9E
:10369000DCBF41EA0C019040E41AA2BF01EB0451E7
:1036A000294330BD6FEA04041F3C1CDA0C340EDCE5
:1036B00004F11404C4F1200220FA04F001FA02F328
:1036C00040EA030021FA04F345EA030130BDC4F1E6
:1036D0000C04C4F1200220FA02F001FA04F340EADB
:1036E0000300294630BD21FA04F0294630BD94F08C
:1036F000000F83F4801306BF81F480110134013D73
:103700004EE77FEA645C18BF7FEA655C29D094EAE3
:10371000050F08BF90EA020F05D054EA000C04BF61
:103720001946104630BD91EA030F1EBF002100204C
:1037300030BD5FEA545C05D14000494128BF41F0EB
:10374000004130BD14F580043CBF01F5801130BD4F
:1037500001F0004545F0FE4141F470014FF00000DA
:1037600030BD7FEA645C1ABF194610467FEA655C8B
:103770001CBF0B46024650EA013406BF52EA03352D
:1037800091EA030F41F4002130BD00BF90F0000F1B
:1037900004BF0021704730B54FF4806404F1320457
:1037A0004FF000054FF0000150E700BF90F0000F10
:1037B00004BF0021704730B54FF4806404F1320437
:1037C00010F0004548BF40424FF000013EE700BF07
:1037D00042004FEAE2014FEA31014FEA02701FBF97
:1037E00012F07F4393F07F4F81F06051704792F069
:1037F000000F14BF93F07F4F704730B54FF46074E3
:1038000001F0004521F0004120E700BF50EA01022D
:1038100008BF704730B54FF000050AE050EA0102DA
:1038200008BF704730B511F0004502D5404261EB4A
:1038300041014FF4806404F132045FEA915C3FF48B
:10384000DCAE4FF003025FEADC0C18BF03325FEA24
:10385000DC0C18BF033202EBDC02C2F1200300FAD9
:1038600003FC20FA02F001FA03FE40EA0E0021FAFE
:1038700002F11444C1E600BF70B54FF0FF0C4CF4E8
:10388000E06C1CEA11541DBF1CEA135594EA0C0F9E
:1038900095EA0C0F00F0DEF82C4481EA030621EAD9
:1038A0004C5123EA4C5350EA013518BF52EA033514
:1038B00041F4801143F4801338D0A0FB02CE4FF0C6
:1038C0000005E1FB02E506F00042E0FB03E54FF0F6
:1038D0000006E1FB03569CF0000F18BF4EF0010EEE
:1038E000A4F1FF04B6F5007F64F5407404D25FEAEA
:1038F0004E0E6D4146EB060642EAC62141EA55519D
:103900004FEAC52040EA5E504FEACE2EB4F1FD0CDE
:1039100088BFBCF5E06F1ED8BEF1004F08BF5FEA5C
:10392000500E50F1000041EB045170BD06F000460E
:1039300046EA010140EA020081EA0301B4EB5C04BB
:10394000C2BFD4EB0C0541EA045170BD41F48011B3
:103950004FF0000E013C00F3AB8014F1360FDEBFD8
:10396000002001F0004170BDC4F10004203C35DAB4
:103970000C341BDC04F11404C4F1200500FA05F337
:1039800020FA04F001FA05F240EA020001F00042D8
:1039900021F0004110EBD37021FA04F642EB06014E
:1039A0005EEA430E08BF20EAD37070BDC4F10C0478
:1039B000C4F1200500FA04F320FA05F001FA04F23C
:1039C00040EA020001F0004110EBD37041F1000128
:1039D0005EEA430E08BF20EAD37070BDC4F1200533
:1039E00000FA05F24EEA020E20FA04F301FA05F29B
:1039F00043EA020321FA04F001F0004121FA04F243
:103A000020EA020000EBD3705EEA430E08BF20EA12
:103A1000D37070BD94F0000F0FD101F0004640004C
:103A200041EB010111F4801F08BF013CF7D041EACE
:103A3000060195F0000F18BF704703F000465200D2
:103A400043EB030313F4801F08BF013DF7D043EAA3
:103A50000603704794EA0C0F0CEA135518BF95EA59
:103A60000C0F0CD050EA410618BF52EA4306D1D1E0
:103A700081EA030101F000414FF0000070BD50EAFF
:103A8000410606BF1046194652EA430619D094EA89
:103A90000C0F02D150EA013613D195EA0C0F05D173
:103AA00052EA03361CBF104619460AD181EA0301C7
:103AB00001F0004141F0FE4141F470014FF000007F
:103AC00070BD41F0FE4141F4780170BD70B54FF01A
:103AD000FF0C4CF4E06C1CEA11541DBF1CEA13559A
:103AE00094EA0C0F95EA0C0F00F0A7F8A4EB05047C
:103AF00081EA030E52EA03354FEA013100F0888073
:103B00004FEA03334FF0805545EA131343EA12633B
:103B10004FEA022245EA111545EA10654FEA0026F0
:103B20000EF000419D4208BF964244F1FD0404F5A9
:103B3000407402D25B084FEA3202B61A65EB030505
:103B40005B084FEA32024FF480104FF4002CB6EBC2
:103B5000020E75EB030E22BFB61A754640EA0C0042
:103B60005B084FEA3202B6EB020E75EB030E22BF82
:103B7000B61A754640EA5C005B084FEA3202B6EBC3
:103B8000020E75EB030E22BFB61A754640EA9C0082
:103B90005B084FEA3202B6EB020E75EB030E22BF52
:103BA000B61A754640EADC0055EA060E18D04FEA10
:103BB000051545EA16754FEA06164FEAC30343EAB0
:103BC00052734FEAC2025FEA1C1CC0D111F4801F7D
:103BD0000BD141EA00014FF000004FF0004CB6E776
:103BE00011F4801F04BF01430020B4F1FD0C88BF15
:103BF000BCF5E06F3FF6AFAEB5EB030C04BFB6EB20
:103C0000020C5FEA500C50F1000041EB045170BD12
:103C10000EF0004E4EEA113114EB5C04C2BFD4EB3F
:103C20000C0541EA045170BD41F480114FF0000EC3
:103C3000013C90E645EA060E8DE60CEA135594EA3F
:103C40000C0F08BF95EA0C0F3FF43BAF94EA0C0F42
:103C50000AD150EA01347FF434AF95EA0C0F7FF4B7
:103C600025AF104619462CE795EA0C0F06D152EA0B
:103C700003353FF4FDAE1046194622E750EA4106EF
:103C800018BF52EA43067FF4C5AE50EA41047FF400
:103C90000DAF52EA43057FF4EBAE12E74FF0FF3C65
:103CA00006E000BF4FF0010C02E000BF4FF0010C36
:103CB0004DF804CD4FEA410C7FEA6C5C4FEA430CAF
:103CC00018BF7FEA6C5C1BD001B050EA410C0CBFFE
:103CD00052EA430C91EA030F02BF90EA020F002060
:103CE000704710F1000F91EA030F58BF994208BFC7
:103CF00090422CBFD8176FEAE37040F00100704784
:103D00004FEA410C7FEA6C5C02D150EA013C07D1DA
:103D10004FEA430C7FEA6C5CD6D152EA033CD3D025
:103D20005DF8040B704700BF8446104662468C461F
:103D30001946634600E000BF01B5FFF7B7FF002852
:103D400048BF10F1000F01BD4DF808EDFFF7F4FF7B
:103D50000CBF012000205DF808FB00BF4DF808ED06
:103D6000FFF7EAFF34BF012000205DF808FB00BF29
:103D70004DF808EDFFF7E0FF94BF012000205DF84B
:103D800008FB00BF4DF808EDFFF7CEFF94BF012000
:103D900000205DF808FB00BF4DF808EDFFF7C4FFF9
:103DA00034BF012000205DF808FB00BF0A2200217B
:103DB00000F068BA70B50F4E0F4D761BB61018BFE5
:103DC000002405D0013455F8043B9847A642F9D1A8
:103DD0000A4E0B4D761B05F067FFB61018BF002486
:103DE00006D0013455F8043B9847A642F9D170BD7E
:103DF00070BD00BFB49C4000B49C4000BC9C40001F
:103E0000B49C40000FB400B5074983B004AB086808
:103E100053F8042B8168019301F0B8FC03B05DF8FE
:103E200004EB04B0704700BF0C004020844641EA18
:103E3000000313F003036DD1403A41D351F8043B22
:103E400040F8043B51F8043B40F8043B51F8043B74
:103E500040F8043B51F8043B40F8043B51F8043B64
:103E600040F8043B51F8043B40F8043B51F8043B54
:103E700040F8043B51F8043B40F8043B51F8043B44
:103E800040F8043B51F8043B40F8043B51F8043B34
:103E900040F8043B51F8043B40F8043B51F8043B24
:103EA00040F8043B51F8043B40F8043B51F8043B14
:103EB00040F8043B51F8043B40F8043B403ABDD283
:103EC000303211D351F8043B40F8043B51F8043B25
:103ED00040F8043B51F8043B40F8043B51F8043BE4
:103EE00040F8043B103AEDD20C3205D351F8043BB4
:103EF00040F8043B043AF9D2043208D0D2071CBF80
:103F000011F8013B00F8013B01D30B8803806046A8
:103F1000704700BF082A13D38B078DD010F003031E
:103F20008AD0C3F10403D21ADB071CBF11F8013B8E
:103F300000F8013B80D331F8023B20F8023B7BE7DD
:103F4000043AD9D3013A11F8013B00F8013BF9D208
:103F50000B7803704B7843708B78837060467047A2
:103F600070B4860746D0541E002A41D0CAB2034618
:103F700002E014F1FF343BD303F8012B9D07F8D185
:103F8000032C2ED9CDB245EA05250F2C45EA05456F
:103F900019D903F110022646103E0F2E42F8105C8C
:103FA00042F80C5C42F8085C42F8045C02F1100232
:103FB000F2D8A4F1100222F00F0204F00F04103224
:103FC000032C13440DD91E462246043A032A46F810
:103FD000045BFAD8221F22F003020432134404F0D7
:103FE00003042CB1C9B21C4403F8011B9C42FBD151
:103FF00070BC704714460346C2E700BF0EB4F0B56C
:104000009CB021AB0F4953F8042B019305466FF088
:104010000044086802954FF402774FF6FF7602A934
:104020000695ADF8147004940794ADF8166000F08E
:104030003FF9029B00221A701CB0BDE8F04003B0AB
:10404000704700BF0C00402000000000000000008E
:104050000000000000000000000000000000000060
:104060000000000000000000000000000000000050
:104070000000000000000000000000000000000040
:1040800090F800F06DE9024520F007016FF0000C98
:1040900010F0070491F820F040F049804FF0000440
:1040A0006FF00700D1E9002391F840F000F108001B
:1040B00082FA4CF2A4FA8CF283FA4CF3A2FA8CF353
:1040C0004BBBD1E9022382FA4CF200F10800A4FABA
:1040D0008CF283FA4CF3A2FA8CF3E3B9D1E904230E
:1040E00082FA4CF200F10800A4FA8CF283FA4CF345
:1040F000A2FA8CF37BB9D1E9062301F1200182FAFF
:104100004CF200F10800A4FA8CF283FA4CF3A2FA04
:104110008CF3002BC6D0002A04BF04301A4612BA12
:10412000B2FA82F2FDE8024500EBD2007047D1E915
:10413000002304F00305C4F100004FEAC50514F0A4
:10414000040F91F840F00CFA05F562EA05021CBF75
:1041500063EA050362464FF00004A9E72DE9F84F32
:10416000DDF828900F46804616461D468A4600E038
:10417000A2465446484614F801BB03F077FE584463
:10418000427812F00802F3D1BBF12D0F4FD0BBF1F2
:104190002B0F04BF94F800B00AF102041DB1102DDA
:1041A00056D0AC4604E0BBF1300F60D00A25AC46D7
:1041B000002A0CBF6FF000494FF000490021B9FB05
:1041C000FCFE08460CFB1E9A05E029D00CFB0030D3
:1041D000012114F801BBABF13003092B05D9ABF178
:1041E0004103192B0BD8ABF137039D420FDDB1F121
:1041F000FF3FEED08645E8D24FF0FF31E9E7ABF163
:104200006103192B03D8ABF157039D42EFDC4B1C24
:1042100013D002B1404246B1C1B93760BDE8F88F52
:104220009A45D3DA4FF0FF31D3E7BDE8F88F94F821
:1042300000B001220AF10204B0E72223C8F80030DE
:10424000EEB1671E48463760BDE8F88F8146F8E753
:10425000BBF1300FA5D1237803F0DF03582BA0D199
:104260004FF0100C94F801B065460234A0E72378B3
:1042700003F0DF03582BF3D00825AC4698E74846F7
:10428000BDE8F88F30B5084C084B25686C6B83B0DF
:10429000002C08BF1C46009413460A4601462846D7
:1042A000FFF75CFF03B030BD0C0040203C04402011
:1042B0002DE9F04FC3B00C460B9192460F930C9032
:1042C00003F0D8FD03681A931846FFF7D9FEA389B7
:1042D0001990190603D52369002B01F003800023F0
:1042E0000DF1C809139315931493279326931893EC
:1042F0001B930993CDF89490C846169317939AF898
:1043000000305446E3B1252B02D119E0252B03D010
:1043100014F8013F002BF9D1A4EB0A0585B1269BC7
:10432000279AC8F800A001332A44072BC8F8045084
:10433000279226937FDC08F10808099B2B440993F8
:104340002378002B7FD000231A468DF8773019464A
:104350000D939B464FF0FF3063780A9004F1010AF9
:104360000AF1010AA3F12000582800F2C183DFE816
:1043700010F03802BF03BF034002BF03BF03BF03F7
:10438000BF03BF03BF0345020302BF035D006B020F
:10439000BF0386029D039D039D039D039D039D0313
:1043A0009D039D039D03BF03BF03BF03BF03BF0363
:1043B000BF03BF03BF03BF03BF0337035703BF03DD
:1043C0005703BF03BF03BF03BF039803BF03BF036C
:1043D000AD03BF03BF03BF03BF03BF035902BF0346
:1043E000BF031E03BF03BF03BF03BF03BF03BF035E
:1043F000BF03BF03BF03BF03C602DB02570357035C
:1044000057038B02DB02BF03BF039002BF039D0271
:10441000CC01B4020802BF03E101BF037E00BF0369
:10442000BF030D020D980F9340420D904BF0040B0B
:104430009AF8003094E725AA0B990C9804F026FE10
:1044400040B9C84679E7279B23B10C980B9925AA58
:1044500004F01CFE0B9B9B8913F0400F099B18BFB7
:104460004FF0FF330993099843B0BDE8F08F1BF07C
:10447000200F119340F0DD810F9A1BF0100F1346AF
:1044800040F06E851BF0400F00F06A8514880432FE
:10449000002501230F9200278DF877700A994A1C96
:1044A00000F065822BF08002079254EA050240F08A
:1044B0006482002940F03C84002B40F0D7841BF03C
:1044C00001030E9300F0048642AE302306F8413D0E
:1044D0000A9B0E9A9342B8BF134608930023129387
:1044E00017B1089B01330893079B13F00203109345
:1044F00002D0089B02330893079B13F0840540F019
:104500000E830D9B089AA3EB020BBBF1000F40F347
:104510000683BBF1100F279C269A29DD43462146CE
:10452000A84610270C9C0B9D06E0ABF1100BBBF1CD
:10453000100F03F1080318DD0132B748269210313D
:10454000072A279183E88100EFDD25AA2946204626
:1045500004F09CFD00287FF47DAFABF1100BBBF1A4
:10456000100F2799269A4B46E6DC45460C4698469E
:104570000132A94B26925C44072A279488E8080850
:1045800000F398849DF8777008F1080877B1269BAE
:10459000013301340DF177010122072B2794269373
:1045A00088E8060000F3DB8308F10808109B6BB174
:1045B000269B013302341EA90222072B279426933F
:1045C00088E8060000F3D68308F10808802D00F083
:1045D00015830A9B0E9A9F1A002F36DD102F269BFB
:1045E0008E4D27DD42462146B0464FF0100B2E4639
:1045F0000C9C0B9D04E0103F102F02F1080215DD0A
:1046000001331031072B2791269382E84008F2DD11
:1046100025AA2946204604F039FD00287FF41AAF68
:10462000103F102F2799269B4A46E9DC35460C4659
:104630004646904601333C44072B2794269388E84E
:10464000A00000F3818308F10808079BDF0500F153
:104650006882269B0E99C8F8006001330C44072B32
:104660002794C8F80410269300F34D8308F1080836
:10467000079B5B073AD50D9B089A9D1A002D35DDE7
:10468000102D269B20DD10260C9FDDF82CB004E0B9
:10469000103D102D08F1080816DD01335E4A2693FF
:1046A0001034072B279488E84400F1DD25AA5946E9
:1046B000384604F0EBFC00287FF4CCAE103D102D02
:1046C000279C269BC846E8DC0133534A26932C449A
:1046D000072B279488E8240008DD25AA0B990C985D
:1046E00004F0D4FC00287FF4B5AE279C099B0D9AFA
:1046F00008998A42ACBF9B185B180993002C40F0C4
:104700000D8300232693C846F9E511931BF020037F
:1047100040F0E3811BF0100240F02E841BF04003B8
:1047200000F02A840F9913460A4604320C880F922F
:104730000025B0E60F9A1193166800248DF8774093
:10474000151D002E00F0A7860A9A531C00F009865A
:104750002146304603F0E4FE002800F0E186831B8A
:104760000E930A940F95CDF81CB023EAE3730893D7
:1047700012949DF87770B3E69AF8003001222B214D
:10478000EEE54BF0200B9AF80030E9E51193002A92
:1047900040F09587224B18931BF0200F40F01181B9
:1047A0000F9A1BF0100F134640F0E1831BF0400FEF
:1047B00000F0DD83043314880F9300251BF0010FF4
:1047C00000F00C8154EA050300F0088130239DF8C5
:1047D00044208DF878308DF879204BF0020B0223BD
:1047E00059E69AF8003000297FF4BAAD0122202161
:1047F000B6E54BF0010B9AF80030B1E50F9C236849
:104800000D9318460028234603F10403FFF60AAE71
:104810000F939AF80030A3E5489A4000589A400058
:10482000289A40004BF0100B1BF0200F11933FF41F
:1048300023AE0F9D073525F0070303F10802D3E9E6
:1048400000450F92012326E69AF800302A2B0AF140
:10485000010400F02787A3F130000928A24600F2E6
:10486000AD8600231C461AF8013B04EB840400EBE0
:104870004404A3F130000928F5D90A9472E54BF0FD
:10488000800B9AF800306BE54BF0400B9AF8003043
:1048900066E59AF800306C2B03BF9AF801304BF0B4
:1048A000200B0AF1010A4BF0100B59E5002A40F0E9
:1048B00011871BF0200F40F0F9841BF0100F40F01F
:1048C000AC841BF0400F00F0A8840F9A13680432E8
:1048D0000F92BDF824201A8011E50F99B34B0C6894
:1048E00018933022782304318DF8793011934BF0EE
:1048F000020B0F9100258DF878200223CBE50F994C
:1049000011930A688DF8A02000230A461F468DF8EF
:104910007730043201230893CDF81CB00A97129720
:104920000F920E9328AEDFE51193002A40F0EA863D
:104930001BF0200F5DD11BF0100F40F008831BF01F
:10494000400F00F004830F99B1F900400431E517DE
:1049500022462B460F91002A73F1000358DB0A9977
:104960009DF877704A1C4FF001037FF49BAD54EA29
:10497000050200F0DF81CDF81CB0012B00F07B8236
:10498000022B40F0068218984E46230904F00F01CE
:1049900043EA05732A091C461546435C06F8013DA7
:1049A00054EA0503F1D1A9EB06030E9390E51193A8
:1049B000002A40F0A3867E4B18931BF0200F3FF493
:1049C000EFAE0F9D073525F0070303F108021BF03A
:1049D000010F0F92D3E900457FF4F4AE02235AE5AC
:1049E0001193002A40F086864BF0100B1BF0200F2D
:1049F000A1D00F9D073525F00705D5E90023002A32
:104A000005F108011D4673F100030F911446A6DA63
:104A10002D27644265EB45058DF8777001233DE550
:104A20001193002A40F062860F9D073525F0070399
:104A300003F108020F921A6815925B681493149B95
:104A4000159D23F00044284621464FF0FF32594B74
:104A500004F098FD002840F04A83284621464FF094
:104A6000FF32544BFFF784F9002840F0408315A82B
:104A70000DC81499FFF772F9002840F030859DF8B1
:104A800077704D4E4D4B2BF080000790119803220C
:104A9000002108920A914728D8BF1E460E92129113
:104AA0001EE54BF0080B9AF8003059E4A3F13000F2
:104AB00000231C461AF8013B04EB840400EB440479
:104AC000A3F130000928F5D90D944BE44BF0100BFD
:104AD00011931BF020033FF41DAE0F9D073525F009
:104AE000070303F10802D3E900450F920023D2E443
:104AF0001193002A40F0E785119A002A3FF4A3ACF5
:104B0000002301211F4608918DF8A020CDF81CB08C
:104B10008DF877300A9312930E9128AEE4E4279C27
:104B200034E5119B652B40F3A78015A80DC8149997
:104B3000FFF70AF9002800F05081269B204AC8F8A8
:104B40000020013301340122072B27942693C8F853
:104B5000042000F36A8308F108081F9B139A279C1E
:104B6000934203DB079BDD077FF582AD269B1999F6
:104B70001A9AC8F8002001330C44072BC8F8041017
:104B80002794269300F39E8308F10808139B5E1E6A
:104B9000002E7FF76DAD102E269B0A4D40F3F58158
:104BA00022461027DDF830B00B9C13E0289A400015
:104BB000149A4000FFFFEF7F089A4000049A4000DB
:104BC000449A4000589A400008F10808103E102E00
:104BD00040F3DA8101331032072B2792269388E8BD
:104BE000A000F1DD25AA2146584604F04FFA00281E
:104BF0007FF430AC279A269BC846E7E70D9B089ABE
:104C00009F1A002F7FF7E5AC102F269BB64D27DDAE
:104C100042462146B0464FF0100B2E460C9C0B9D91
:104C200004E0103F102F02F1080215DD01331031AE
:104C3000072B2791269382E84008F2DD25AA294612
:104C4000204604F023FA00287FF404AC103F102F14
:104C50002799269B4A46E9DC35460C46464690464F
:104C600001333C44072B2794269388E8A00000F3E7
:104C7000328208F10808ACE4139B269F012B40F315
:104C8000FE81013701340123072F27942697C8F8A6
:104C90000060C8F8043000F3038208F10808199A8C
:104CA0001A9BC8F8003001371444072F2794269721
:104CB000C8F8042000F3008208F1080815A80DC800
:104CC0001499FFF741F8139B002840F00181013B44
:104CD000013701361C44072F26972794C8F8006037
:104CE000C8F8043000F3278108F108081B9AC8F8B7
:104CF00004200137144421AB072F27942697C8F8C6
:104D000000307FF7B3AC25AA0B990C9804F0BEF9DC
:104D100000287FF49FAB279CC846A9E425AA0B99DD
:104D20000C9804F0B3F900283FF4EBACFFF792BB0A
:104D3000DDF81CB0012B00F03481022B25D1CDF819
:104D40001CB0002400251EE625AA0B990C9804F03F
:104D50009DF900287FF47EAB279CC84675E425AA00
:104D60000B990C9804F092F900287FF473AB279C00
:104D7000C8461BE425AA0B990C9804F087F9002873
:104D80007FF468AB279CC84620E4CDF81CB0002413
:104D90000025494600E03146E20842EA4572E8084B
:104DA00004F0070305461446303354EA050201F8BF
:104DB000013C01F1FF36EED1079AD2077FF5F3AD42
:104DC000302B3FF4F0AD0239302306F8013CA9EB5B
:104DD00001030E930E46FFF77BBB1F99002940F39A
:104DE0002E82129B139A9342A8BF1346002B1F4694
:104DF0000DDD269BC8F8006001333C44072B279447
:104E0000C8F80470269300F31F8308F10808129B6A
:104E1000002FA8BFDB1B002B1F4640F3D680102FAE
:104E2000269B314D40F3ED8142462146B0464FF07E
:104E3000100B2E460C9C0B9D04E00832103F102FE7
:104E400040F3DB8101331031072B2791269382E851
:104E50004008F2DD25AA2946204604F017F900286B
:104E60007FF4F8AA2799269B4A46E7E70A9B0E9308
:104E70004E46FFF72DBB002D08BF0A2CC0F08F80D7
:104E80004E46204629460A22002304F0B9FB303260
:104E900006F8012D2046294600230A2204F0B0FB23
:104EA00004460D4654EA0503EBD1A9EB06030E9325
:104EB000FFF70EBB25AA0B990C9804F0E7F8002821
:104EC0007FF4C8AA9DF87770279CC846FFF75EBBA1
:104ED0005E1E002E7FF70AAF102E034D22DD224604
:104EE0004FF0100B0C9C06E0589A4000103E102E1C
:104EF00008F1080815DD01371032072F2792269791
:104F000088E82008F2DD25AA0B99204604F0BEF8B7
:104F100000287FF49FAA103E102E279A269FC8468D
:104F2000E9DC144601373444072F2794269788E894
:104F300060007FF7D9AE25AA0B990C9804F0A6F86B
:104F400000287FF487AA279C269FC846CEE60F9AA2
:104F5000146813460433E5170F9322462B46FAE4F0
:104F600004321C680F9201230025FFF794BA1C68D5
:104F700004330F93002521E40F990A4604320C688C
:104F80000F920025FFF787BA144601333444072BEC
:104F90002794269388E860007FF768ABB3E6DDF8D6
:104FA0001CB0CDF81CB042AE3034012306F8414DA0
:104FB0000E93FFF78DBA25AA0B990C9804F066F8AA
:104FC00000287FF447AA279CC8461F9A139B9A4241
:104FD00044DB079BD90741D4139B12989A1A1D1AD8
:104FE0009542A8BF1546002D0EDD2699C8F804503D
:104FF000013106442C440729C8F800602794269103
:1050000000F33B8208F10808002DACBF561B164682
:10501000002E7FF72DAB102E269BB04DB5DD22461E
:105020001027DDF830B00B9C04E008F10808103EB2
:10503000102EA9DD01331032072B2792269388E822
:10504000A000F2DD25AA2146584604F01FF80028EA
:105050007FF400AA279A269BC846E8E7269B199862
:105060001A99C8F8001001330444072B2794C8F894
:105070000400269300F3F58108F10808ACE7079BCC
:10508000DA073FF5FEAD013701340123072F2794DE
:105090002697C8F80060C8F804307FF725AE4AE7C5
:1050A00025AA0B990C9803F0F1FF00287FF4D2A9F0
:1050B000279C269FC846F2E525AA0B990C9803F079
:1050C000E5FF00287FF4C6A9279C269FC846F5E582
:1050D0004E46FFF7FDB925AA0B990C9803F0D6FFB1
:1050E00000287FF4B7A9279CC846FFF772BA159C21
:1050F00022462046149C2346214604F043FA002809
:1051000040F086820A9B0133119B23F020030E930B
:1051100000F0E281472B00F01E814BF4807307936F
:10512000149B1F1E159B0893BBBF3B4603F1004712
:1051300000232D231093119B662B00F0BB81462B7F
:1051400000F0DF800E9B089A452B0CBF0A9B0A9D3E
:1051500023A820A908BF5D1C049003911FA8022169
:105160003B460290019500910C9801F0A1FA119B29
:10517000672B064640F0E0811BF0010F00F04682ED
:105180007419169A0898179B3946FEF7DDFD00281A
:1051900040F06581239BA34206D230215A1C239202
:1051A0001970239B9C42F9D89B1B13930E9B472B92
:1051B00000F0E980119B652B40F3CD81119B662B9C
:1051C0001F9B129300F09E81139B129A19469142E5
:1051D00000F38A811BF0010F40F0138222EAE27390
:1051E000089367230E921193109B002B40F0C4800C
:1051F0000A939DF87770FFF773B935460C4646461B
:10520000904601333C44072B2794269388E8A0005E
:105210003FF7D1AE08F10808D7E60F9A13680432B9
:105220000F92099A1A60FFF76AB825AA0B990C9891
:1052300003F02CFF00287FF40DA9C8468DE4269BBF
:10524000274AC8F80020013301340122072B279494
:105250002693C8F8042072DC08F1080829B9139BCA
:105260001BB9079BD8077FF503AA269B19981A9AA2
:10527000C8F80020013302462244072B2792C8F8C1
:105280000400269300F38D8108F108080029C0F27C
:1052900065811399C8F8006001338C18072B279497
:1052A0002693C8F804107FF7E1A92CE50F9A099915
:1052B0001368CD170846043229460F92C3E900014E
:1052C000FFF71DB825AA0B990C9803F0DFFE002804
:1052D0007FF4C0A8279CC84658E400BF589A4000F5
:1052E000449A400040210C9802F052FE0B9A106044
:1052F0001061002800F0F2810B9A40235361FEF701
:10530000EEBF23A820A90A9C049003911FA80321A3
:105310000290089A01943B4600910C9801F0C8F95C
:1053200025460646119B462B06EB05047FF429AF64
:105330003378302B00F078811F9D2C4421E725AA7B
:105340000B990C9803F0A2FE00287FF483A81F9904
:10535000279CC84682E70A9B002B08BF01230A93BB
:10536000DBE630460A94FEF78BFE0F950E90CDF8E3
:105370001CB00346FFF7F9B92D2700238DF877708D
:105380000A93FFF7AEB81F9B12931A46033304DB50
:105390000A9B19469142BFF617AF119B023B11932E
:1053A0009DF844308DF88430129B013B002B1F93F5
:1053B000BDBF129BC3F101032D222B22092B8DF8B7
:1053C000852040F316810DF193042046AB4D00E09B
:1053D000104685FB0312D917C1EBA20101EB810234
:1053E000A3EB42023032092900F8012C0B4600F1F0
:1053F000FF32EDDC30330238D9B2844202F8011CAE
:1054000040F265810DF18600134601E013F8011B9F
:1054100000F8011BA342F9D101339B1A0DF186025A
:10542000134421AA9B1A139A1B93012A13440E9327
:1054300040F319810E9B199A13440E9323EAE373E8
:10544000089300231293CFE625AA0B990C9803F03A
:105450001DFE00287EF4FEAF279CC846D7E42346F5
:10546000A2E625AA0B990C9803F010FE00287EF402
:10547000F1AF1F9A279CC846AEE525AA0B990C9858
:1054800003F004FE00287EF4E5AF1F9A139B279CCF
:105490009A1AC846B8E50A9B1296062B28BF06231F
:1054A0000A96374608930F95CDF81CB00E93744EAC
:1054B000FFF716B823A820A90A9D049003911FA8FE
:1054C00003210290089A01953B4600910C9801F047
:1054D000EFF8064644192BE706230A931DE62D270D
:1054E0008DF87770FFF7CDBA199A139B1344129A6F
:1054F0000E93002A40F3B08023EAE37308936723F6
:10550000119371E6002B40F3C3800A9A002A40F001
:1055100099801BF0010F40F0958008930E9363E68D
:105520000A9B08930E930A900F95CDF81CB0129029
:105530009DF87770FEF7D4BF119B472B7FF420AE08
:105540001BF0010F7FF4EEAE239B9B1B13930E9B6E
:10555000472B3FF418AF1F9B129321E74F421031A6
:10556000484D2FDA1024DDF830B004E008F10808C7
:10557000103F102F26DD01331032072B2792269380
:10558000C8F80050C8F80440F0DD25AA0B99584629
:1055900003F07CFD00287EF45DAF279A269BC84669
:1055A000E6E725AA0B990C9803F070FD00287EF41D
:1055B00051AF1F99279A269BC84667E600200A909C
:1055C000FEF7D0BE01333A44072B88E8A0002792AB
:1055D000269308F108087FF75CAE25AA0B990C9872
:1055E00003F054FD00287EF435AF279A269BC84669
:1055F0004FE6303330228DF887308DF8862022AB8D
:105600000FE7129B199A13440E9375E7239BCBE582
:10561000149B1D4E002BB6BF2D279DF877708DF87B
:1056200077701A4BFFF72FBA169A0898179B3946CE
:10563000FEF78AFB00287FF47FAEC5F101051F95B8
:105640002C449EE5129B199A13440A9A1A4422EAA2
:10565000E2730E920893C7E5129B0E9AC3F1010301
:105660001A441346D0E71BF0010312937FF4E2AE15
:105670000E9B23EAE3730893B6E500BF6766666690
:105680003C9A4000589A4000109A40000C9A400002
:105690000A9B13B91BF0010F02D0199B0133D4E709
:1056A00001233AE70F9D9AF80130286840EAE0703C
:1056B0000A9028460430A2460F90FEF751BE8DF89E
:1056C0007710FFF767B88DF87710FFF715BA0DF16F
:1056D0008603A6E68DF87710FFF7EBB80C9A0C233B
:1056E00013604FF0FF330993FEF7BDBE8DF87710BE
:1056F000FFF79AB98DF87710FFF776B98DF8771024
:10570000FFF759B98DF87710FFF712B92DE9F84F67
:105710004B6E9C0493462FD59368126853B30E4684
:10572000074602F1080919E920045FEA9A0817D030
:10573000043D002401E0A04510D0324655F8041F76
:10574000384602F079F8431C04F10104F3D1002338
:10575000CBF80830CBF80430BDE8F88FDBF8083020
:105760002AF0030AA3EB0A03CBF8083009F1080971
:10577000002BD8D10020EAE702F0C8F90023CBF8CB
:105780000830CBF80430BDE8F88F00BF2DE9F04FAA
:10579000ADB01D468B4690460793069018B1836BBB
:1057A000002B00F0F380DBF86430BBF90C00DF075E
:1057B00081B202D48E0540F1FC808C040AD4DBF85F
:1057C000643040F4005123F40053ABF80C10CBF8D4
:1057D000643089B2080740F1B380DBF81030002B49
:1057E00000F0AE8001F01A030A2B00F0B580002310
:1057F0000DF170090B93119310930393CDF83C9026
:10580000CA46CDF810B098F800304446FBB1252BBD
:1058100002D11CE0252B03D014F8013F002BF9D155
:10582000A4EB08059DB1109B119ACAF800800133C2
:105830002A44072BCAF80450119210937ADD002AEB
:1058400040F0B084039B10922B44CA460393237804
:10585000002B00F0E08300204FF000038DF837307C
:1058600004F1010862780546064603464FF0FF340E
:1058700008F10108A2F12001582900F2DE82DFE8D8
:1058800011F02102DC02DC022902DC02DC02DC0273
:10589000DC02DC02DC0289029502DC02A200BD020D
:1058A000DC029F01A401A401A401A401A401A4019C
:1058B000A401A401A401DC02DC02DC02DC02DC02A3
:1058C000DC02DC02DC02DC02DC02B201DC02DC0213
:1058D000DC02DC02DC02DC02DC02DC02DC02DC02D8
:1058E0009701DC02DC02DC02DC02DC029B01DC0250
:1058F000DC025302DC02DC02DC02DC02DC02DC0241
:10590000DC02DC02DC02DC025A021B02DC02DC02EA
:10591000DC026E021B02DC02DC027302DC02F50117
:1059200082010902D702DC029A02DC02A700DC0233
:10593000DC022E020AF1080A039B2B44039386E73C
:105940005946069800F0ACFD18BBBBF80C1001F0EE
:105950001A030A2B7FF44BAFBBF90E30002BFFF676
:1059600046AFDBF86430DB0705D48F0503D4DBF8E2
:10597000580002F093FA2B4642465946069800F02A
:105980004DFD039003982DB0BDE8F08F01F0B2FEFD
:1059900009E7DBF86430D90704D4BBF80C309A056A
:1059A00040F1AA844FF0FF33039303982DB0BDE874
:1059B000F08FDBF8580002F06FFABBF90C0081B2EF
:1059C000FBE67642079243F0040398F800204FE785
:1059D00008969E0600F150840799DD060A4600F1FC
:1059E000EF83580640F1EC830E8804310027012232
:1059F00007914FF000018DF837100025611C00F071
:105A0000168123F08001029156EA070140F01481CB
:105A1000002C40F05C83002A40F0B78313F00103B0
:105A2000059300F057840DF1B00B30230BF8413D86
:105A3000059BA342B8BF234601930DB101330193E7
:105A4000029B13F00203099302D0019B02330193DE
:105A5000029B13F084030A9340F01782089B019A7B
:105A60009D1A002D40F31182102D40F39084109B5D
:105A7000119AC44ED6461027A2461946069C07E046
:105A800001F1020C0EF1080E0146103D102D11DD42
:105A9000481C1032072811928EE8C0001090EFDDEC
:105AA000002A40F0E481103D102D11464FF0010C0A
:105AB000CE46EDDC54466146F2462A44072911924F
:105AC000CAF80060CAF80450109100F3EC829DF807
:105AD00037500AF1080A481C002D40F0DE81099B6E
